{
  "_format": "hh-sol-artifact-1",
  "contractName": "NinjaNFTNew",
  "sourceName": "contracts/NinjaNFTNew.sol",
  "abi": [
    {
      "inputs": [
        {
          "internalType": "address",
          "name": "_creator",
          "type": "address"
        },
        {
          "internalType": "string",
          "name": "_creatorName",
          "type": "string"
        }
      ],
      "stateMutability": "nonpayable",
      "type": "constructor"
    },
    {
      "anonymous": false,
      "inputs": [
        {
          "indexed": true,
          "internalType": "address",
          "name": "account",
          "type": "address"
        },
        {
          "indexed": true,
          "internalType": "address",
          "name": "operator",
          "type": "address"
        },
        {
          "indexed": false,
          "internalType": "bool",
          "name": "approved",
          "type": "bool"
        }
      ],
      "name": "ApprovalForAll",
      "type": "event"
    },
    {
      "anonymous": false,
      "inputs": [
        {
          "indexed": true,
          "internalType": "address",
          "name": "admin",
          "type": "address"
        },
        {
          "indexed": true,
          "internalType": "string",
          "name": "adminName",
          "type": "string"
        }
      ],
      "name": "ChangeAdmin",
      "type": "event"
    },
    {
      "anonymous": false,
      "inputs": [
        {
          "indexed": true,
          "internalType": "address",
          "name": "admin",
          "type": "address"
        },
        {
          "indexed": true,
          "internalType": "string",
          "name": "adminName",
          "type": "string"
        }
      ],
      "name": "ChangeNinja",
      "type": "event"
    },
    {
      "anonymous": false,
      "inputs": [
        {
          "indexed": true,
          "internalType": "uint256",
          "name": "count",
          "type": "uint256"
        },
        {
          "indexed": false,
          "internalType": "string",
          "name": "uri",
          "type": "string"
        },
        {
          "indexed": false,
          "internalType": "string",
          "name": "name",
          "type": "string"
        },
        {
          "indexed": false,
          "internalType": "string",
          "name": "symbol",
          "type": "string"
        }
      ],
      "name": "CreateNFT",
      "type": "event"
    },
    {
      "anonymous": false,
      "inputs": [
        {
          "indexed": true,
          "internalType": "address",
          "name": "operator",
          "type": "address"
        },
        {
          "indexed": true,
          "internalType": "address",
          "name": "from",
          "type": "address"
        },
        {
          "indexed": true,
          "internalType": "address",
          "name": "to",
          "type": "address"
        },
        {
          "indexed": false,
          "internalType": "uint256[]",
          "name": "ids",
          "type": "uint256[]"
        },
        {
          "indexed": false,
          "internalType": "uint256[]",
          "name": "values",
          "type": "uint256[]"
        }
      ],
      "name": "TransferBatch",
      "type": "event"
    },
    {
      "anonymous": false,
      "inputs": [
        {
          "indexed": true,
          "internalType": "address",
          "name": "operator",
          "type": "address"
        },
        {
          "indexed": true,
          "internalType": "address",
          "name": "from",
          "type": "address"
        },
        {
          "indexed": true,
          "internalType": "address",
          "name": "to",
          "type": "address"
        },
        {
          "indexed": false,
          "internalType": "uint256",
          "name": "id",
          "type": "uint256"
        },
        {
          "indexed": false,
          "internalType": "uint256",
          "name": "value",
          "type": "uint256"
        }
      ],
      "name": "TransferSingle",
      "type": "event"
    },
    {
      "anonymous": false,
      "inputs": [
        {
          "indexed": false,
          "internalType": "string",
          "name": "value",
          "type": "string"
        },
        {
          "indexed": true,
          "internalType": "uint256",
          "name": "id",
          "type": "uint256"
        }
      ],
      "name": "URI",
      "type": "event"
    },
    {
      "inputs": [
        {
          "internalType": "uint256",
          "name": "",
          "type": "uint256"
        }
      ],
      "name": "adminAddr",
      "outputs": [
        {
          "internalType": "address",
          "name": "",
          "type": "address"
        }
      ],
      "stateMutability": "view",
      "type": "function"
    },
    {
      "inputs": [
        {
          "internalType": "address",
          "name": "",
          "type": "address"
        }
      ],
      "name": "admins",
      "outputs": [
        {
          "internalType": "string",
          "name": "",
          "type": "string"
        }
      ],
      "stateMutability": "view",
      "type": "function"
    },
    {
      "inputs": [
        {
          "internalType": "address",
          "name": "account",
          "type": "address"
        },
        {
          "internalType": "uint256",
          "name": "id",
          "type": "uint256"
        }
      ],
      "name": "balanceOf",
      "outputs": [
        {
          "internalType": "uint256",
          "name": "",
          "type": "uint256"
        }
      ],
      "stateMutability": "view",
      "type": "function"
    },
    {
      "inputs": [
        {
          "internalType": "address[]",
          "name": "accounts",
          "type": "address[]"
        },
        {
          "internalType": "uint256[]",
          "name": "ids",
          "type": "uint256[]"
        }
      ],
      "name": "balanceOfBatch",
      "outputs": [
        {
          "internalType": "uint256[]",
          "name": "",
          "type": "uint256[]"
        }
      ],
      "stateMutability": "view",
      "type": "function"
    },
    {
      "inputs": [
        {
          "internalType": "uint256",
          "name": "count",
          "type": "uint256"
        },
        {
          "internalType": "uint256[]",
          "name": "amounts",
          "type": "uint256[]"
        },
        {
          "internalType": "string[]",
          "name": "ninjaNames",
          "type": "string[]"
        }
      ],
      "name": "batchDistributeNFTs",
      "outputs": [],
      "stateMutability": "nonpayable",
      "type": "function"
    },
    {
      "inputs": [
        {
          "internalType": "address",
          "name": "admin",
          "type": "address"
        },
        {
          "internalType": "string",
          "name": "adminName",
          "type": "string"
        }
      ],
      "name": "changeAdmin",
      "outputs": [],
      "stateMutability": "nonpayable",
      "type": "function"
    },
    {
      "inputs": [
        {
          "internalType": "address",
          "name": "newCreator",
          "type": "address"
        },
        {
          "internalType": "string",
          "name": "newCreatorName",
          "type": "string"
        }
      ],
      "name": "changeCreator",
      "outputs": [],
      "stateMutability": "nonpayable",
      "type": "function"
    },
    {
      "inputs": [
        {
          "internalType": "address",
          "name": "ninja",
          "type": "address"
        },
        {
          "internalType": "string",
          "name": "ninjaName",
          "type": "string"
        }
      ],
      "name": "changeNinja",
      "outputs": [],
      "stateMutability": "nonpayable",
      "type": "function"
    },
    {
      "inputs": [
        {
          "internalType": "string",
          "name": "_uri",
          "type": "string"
        },
        {
          "internalType": "string",
          "name": "_name",
          "type": "string"
        },
        {
          "internalType": "string",
          "name": "_symbol",
          "type": "string"
        },
        {
          "internalType": "uint256",
          "name": "_amount",
          "type": "uint256"
        }
      ],
      "name": "createAndMintNFT",
      "outputs": [],
      "stateMutability": "nonpayable",
      "type": "function"
    },
    {
      "inputs": [],
      "name": "creator",
      "outputs": [
        {
          "internalType": "address",
          "name": "",
          "type": "address"
        }
      ],
      "stateMutability": "view",
      "type": "function"
    },
    {
      "inputs": [],
      "name": "getAdminArrayLength",
      "outputs": [
        {
          "internalType": "uint256",
          "name": "",
          "type": "uint256"
        }
      ],
      "stateMutability": "view",
      "type": "function"
    },
    {
      "inputs": [],
      "name": "getNinjaArrayLength",
      "outputs": [
        {
          "internalType": "uint256",
          "name": "",
          "type": "uint256"
        }
      ],
      "stateMutability": "view",
      "type": "function"
    },
    {
      "inputs": [
        {
          "internalType": "address",
          "name": "admin",
          "type": "address"
        }
      ],
      "name": "isAdmin",
      "outputs": [
        {
          "internalType": "bool",
          "name": "",
          "type": "bool"
        }
      ],
      "stateMutability": "view",
      "type": "function"
    },
    {
      "inputs": [
        {
          "internalType": "address",
          "name": "_owner",
          "type": "address"
        },
        {
          "internalType": "address",
          "name": "_operator",
          "type": "address"
        }
      ],
      "name": "isApprovedForAll",
      "outputs": [
        {
          "internalType": "bool",
          "name": "isOperator",
          "type": "bool"
        }
      ],
      "stateMutability": "view",
      "type": "function"
    },
    {
      "inputs": [
        {
          "internalType": "address",
          "name": "ninja",
          "type": "address"
        }
      ],
      "name": "isNinja",
      "outputs": [
        {
          "internalType": "bool",
          "name": "",
          "type": "bool"
        }
      ],
      "stateMutability": "view",
      "type": "function"
    },
    {
      "inputs": [
        {
          "internalType": "uint256",
          "name": "_count",
          "type": "uint256"
        },
        {
          "internalType": "uint256",
          "name": "_amount",
          "type": "uint256"
        }
      ],
      "name": "mintNFT",
      "outputs": [],
      "stateMutability": "nonpayable",
      "type": "function"
    },
    {
      "inputs": [
        {
          "internalType": "uint256",
          "name": "",
          "type": "uint256"
        }
      ],
      "name": "ninjaAddr",
      "outputs": [
        {
          "internalType": "address",
          "name": "",
          "type": "address"
        }
      ],
      "stateMutability": "view",
      "type": "function"
    },
    {
      "inputs": [
        {
          "internalType": "address",
          "name": "",
          "type": "address"
        }
      ],
      "name": "ninjas",
      "outputs": [
        {
          "internalType": "string",
          "name": "",
          "type": "string"
        }
      ],
      "stateMutability": "view",
      "type": "function"
    },
    {
      "inputs": [
        {
          "internalType": "string",
          "name": "",
          "type": "string"
        }
      ],
      "name": "ninjasToAddress",
      "outputs": [
        {
          "internalType": "address",
          "name": "",
          "type": "address"
        }
      ],
      "stateMutability": "view",
      "type": "function"
    },
    {
      "inputs": [
        {
          "internalType": "address",
          "name": "from",
          "type": "address"
        },
        {
          "internalType": "address",
          "name": "to",
          "type": "address"
        },
        {
          "internalType": "uint256[]",
          "name": "ids",
          "type": "uint256[]"
        },
        {
          "internalType": "uint256[]",
          "name": "amounts",
          "type": "uint256[]"
        },
        {
          "internalType": "bytes",
          "name": "data",
          "type": "bytes"
        }
      ],
      "name": "safeBatchTransferFrom",
      "outputs": [],
      "stateMutability": "nonpayable",
      "type": "function"
    },
    {
      "inputs": [
        {
          "internalType": "address",
          "name": "from",
          "type": "address"
        },
        {
          "internalType": "address",
          "name": "to",
          "type": "address"
        },
        {
          "internalType": "uint256",
          "name": "id",
          "type": "uint256"
        },
        {
          "internalType": "uint256",
          "name": "amount",
          "type": "uint256"
        },
        {
          "internalType": "bytes",
          "name": "data",
          "type": "bytes"
        }
      ],
      "name": "safeTransferFrom",
      "outputs": [],
      "stateMutability": "nonpayable",
      "type": "function"
    },
    {
      "inputs": [
        {
          "internalType": "address",
          "name": "operator",
          "type": "address"
        },
        {
          "internalType": "bool",
          "name": "approved",
          "type": "bool"
        }
      ],
      "name": "setApprovalForAll",
      "outputs": [],
      "stateMutability": "nonpayable",
      "type": "function"
    },
    {
      "inputs": [
        {
          "internalType": "bytes4",
          "name": "interfaceId",
          "type": "bytes4"
        }
      ],
      "name": "supportsInterface",
      "outputs": [
        {
          "internalType": "bool",
          "name": "",
          "type": "bool"
        }
      ],
      "stateMutability": "view",
      "type": "function"
    },
    {
      "inputs": [],
      "name": "tokenCount",
      "outputs": [
        {
          "internalType": "uint256",
          "name": "",
          "type": "uint256"
        }
      ],
      "stateMutability": "view",
      "type": "function"
    },
    {
      "inputs": [
        {
          "internalType": "uint256",
          "name": "",
          "type": "uint256"
        }
      ],
      "name": "tokenCountToTokenInfo",
      "outputs": [
        {
          "internalType": "uint256",
          "name": "id",
          "type": "uint256"
        },
        {
          "internalType": "string",
          "name": "name",
          "type": "string"
        },
        {
          "internalType": "string",
          "name": "symbol",
          "type": "string"
        },
        {
          "internalType": "string",
          "name": "uri",
          "type": "string"
        },
        {
          "internalType": "uint256",
          "name": "quantity",
          "type": "uint256"
        }
      ],
      "stateMutability": "view",
      "type": "function"
    },
    {
      "inputs": [
        {
          "internalType": "uint256",
          "name": "",
          "type": "uint256"
        }
      ],
      "name": "tokenCountToUri",
      "outputs": [
        {
          "internalType": "string",
          "name": "",
          "type": "string"
        }
      ],
      "stateMutability": "view",
      "type": "function"
    },
    {
      "inputs": [
        {
          "internalType": "uint256",
          "name": "_count",
          "type": "uint256"
        }
      ],
      "name": "uri",
      "outputs": [
        {
          "internalType": "string",
          "name": "",
          "type": "string"
        }
      ],
      "stateMutability": "view",
      "type": "function"
    },
    {
      "inputs": [
        {
          "internalType": "string",
          "name": "",
          "type": "string"
        }
      ],
      "name": "uriToTokenCount",
      "outputs": [
        {
          "internalType": "uint256",
          "name": "",
          "type": "uint256"
        }
      ],
      "stateMutability": "view",
      "type": "function"
    }
  ],
  "bytecode": "0x60806040523480156200001157600080fd5b506040516200631038038062006310833981810160405281019062000037919062000395565b604051806060016040528060228152602001620062ee6022913962000062816200018860201b60201c565b5081600360006101000a81548173ffffffffffffffffffffffffffffffffffffffff021916908373ffffffffffffffffffffffffffffffffffffffff1602179055508060046000600360009054906101000a900473ffffffffffffffffffffffffffffffffffffffff1673ffffffffffffffffffffffffffffffffffffffff1673ffffffffffffffffffffffffffffffffffffffff168152602001908152602001600020908162000114919062000646565b506005829080600181540180825580915050600190039060005260206000200160009091909190916101000a81548173ffffffffffffffffffffffffffffffffffffffff021916908373ffffffffffffffffffffffffffffffffffffffff160217905550600060098190555050506200072d565b806002908162000199919062000646565b5050565b6000604051905090565b600080fd5b600080fd5b600073ffffffffffffffffffffffffffffffffffffffff82169050919050565b6000620001de82620001b1565b9050919050565b620001f081620001d1565b8114620001fc57600080fd5b50565b6000815190506200021081620001e5565b92915050565b600080fd5b600080fd5b6000601f19601f8301169050919050565b7f4e487b7100000000000000000000000000000000000000000000000000000000600052604160045260246000fd5b6200026b8262000220565b810181811067ffffffffffffffff821117156200028d576200028c62000231565b5b80604052505050565b6000620002a26200019d565b9050620002b0828262000260565b919050565b600067ffffffffffffffff821115620002d357620002d262000231565b5b620002de8262000220565b9050602081019050919050565b60005b838110156200030b578082015181840152602081019050620002ee565b60008484015250505050565b60006200032e6200032884620002b5565b62000296565b9050828152602081018484840111156200034d576200034c6200021b565b5b6200035a848285620002eb565b509392505050565b600082601f8301126200037a576200037962000216565b5b81516200038c84826020860162000317565b91505092915050565b60008060408385031215620003af57620003ae620001a7565b5b6000620003bf85828601620001ff565b925050602083015167ffffffffffffffff811115620003e357620003e2620001ac565b5b620003f18582860162000362565b9150509250929050565b600081519050919050565b7f4e487b7100000000000000000000000000000000000000000000000000000000600052602260045260246000fd5b600060028204905060018216806200044e57607f821691505b60208210810362000464576200046362000406565b5b50919050565b60008190508160005260206000209050919050565b60006020601f8301049050919050565b600082821b905092915050565b600060088302620004ce7fffffffffffffffffffffffffffffffffffffffffffffffffffffffffffffffff826200048f565b620004da86836200048f565b95508019841693508086168417925050509392505050565b6000819050919050565b6000819050919050565b600062000527620005216200051b84620004f2565b620004fc565b620004f2565b9050919050565b6000819050919050565b620005438362000506565b6200055b62000552826200052e565b8484546200049c565b825550505050565b600090565b6200057262000563565b6200057f81848462000538565b505050565b5b81811015620005a7576200059b60008262000568565b60018101905062000585565b5050565b601f821115620005f657620005c0816200046a565b620005cb846200047f565b81016020851015620005db578190505b620005f3620005ea856200047f565b83018262000584565b50505b505050565b600082821c905092915050565b60006200061b60001984600802620005fb565b1980831691505092915050565b600062000636838362000608565b9150826002028217905092915050565b6200065182620003fb565b67ffffffffffffffff8111156200066d576200066c62000231565b5b62000679825462000435565b62000686828285620005ab565b600060209050601f831160018114620006be5760008415620006a9578287015190505b620006b5858262000628565b86555062000725565b601f198416620006ce866200046a565b60005b82811015620006f857848901518255600182019150602085019450602081019050620006d1565b8683101562000718578489015162000714601f89168262000608565b8355505b6001600288020188555050505b505050505050565b615bb1806200073d6000396000f3fe608060405234801561001057600080fd5b50600436106101c35760003560e01c80637bbfe953116100f9578063c9ada78e11610097578063e093f6ac11610071578063e093f6ac14610578578063e316adb014610594578063e985e9c5146105c4578063f242432a146105f4576101c3565b8063c9ada78e1461050e578063cdafd3111461052a578063d2fb043214610548576101c3565b80639f181b5e116100d35780639f181b5e14610488578063a22cb465146104a6578063c48283ff146104c2578063c5b5ef07146104de576101c3565b80637bbfe9531461042057806383a3f4f91461043c5780639bcf8a2b14610458576101c3565b80632eb2c2d6116101665780634d6ee1bf116101405780634d6ee1bf146103865780634e1273f4146103b657806356ea96af146103e6578063762df1c614610404576101c3565b80632eb2c2d61461030657806332003bfd14610322578063429b62e514610356576101c3565b80630e89341c116101a25780630e89341c146102465780631528cb0e1461027657806319a9c7bf146102a657806324d7806c146102d6576101c3565b8062fdd58e146101c857806301ffc9a7146101f857806302d05d3f14610228575b600080fd5b6101e260048036038101906101dd9190613ac1565b610610565b6040516101ef9190613b10565b60405180910390f35b610212600480360381019061020d9190613b83565b6106d8565b60405161021f9190613bcb565b60405180910390f35b6102306107ba565b60405161023d9190613bf5565b60405180910390f35b610260600480360381019061025b9190613c10565b6107e0565b60405161026d9190613ccd565b60405180910390f35b610290600480360381019061028b9190613c10565b610965565b60405161029d9190613ccd565b60405180910390f35b6102c060048036038101906102bb9190613cef565b610a05565b6040516102cd9190613ccd565b60405180910390f35b6102f060048036038101906102eb9190613cef565b610aa5565b6040516102fd9190613bcb565b60405180910390f35b610320600480360381019061031b9190613f19565b610b49565b005b61033c60048036038101906103379190613c10565b610bea565b60405161034d959493929190613fe8565b60405180910390f35b610370600480360381019061036b9190613cef565b610db8565b60405161037d9190613ccd565b60405180910390f35b6103a0600480360381019061039b9190613cef565b610e58565b6040516103ad9190613bcb565b60405180910390f35b6103d060048036038101906103cb9190614113565b610efc565b6040516103dd9190614249565b60405180910390f35b6103ee611015565b6040516103fb9190613b10565b60405180910390f35b61041e6004803603810190610419919061430c565b611022565b005b61043a60048036038101906104359190614449565b61149d565b005b610456600480360381019061045191906144d4565b611726565b005b610472600480360381019061046d919061458f565b611a64565b60405161047f9190613bf5565b60405180910390f35b610490611aad565b60405161049d9190613b10565b60405180910390f35b6104c060048036038101906104bb9190614604565b611ab3565b005b6104dc60048036038101906104d79190614644565b611ac9565b005b6104f860048036038101906104f39190613c10565b611d03565b6040516105059190613bf5565b60405180910390f35b6105286004803603810190610523919061430c565b611d42565b005b610532611ef5565b60405161053f9190613b10565b60405180910390f35b610562600480360381019061055d9190613c10565b611f02565b60405161056f9190613bf5565b60405180910390f35b610592600480360381019061058d919061430c565b611f41565b005b6105ae60048036038101906105a9919061458f565b61247c565b6040516105bb9190613b10565b60405180910390f35b6105de60048036038101906105d99190614684565b6124aa565b6040516105eb9190613bcb565b60405180910390f35b61060e600480360381019061060991906146c4565b61255f565b005b60008073ffffffffffffffffffffffffffffffffffffffff168373ffffffffffffffffffffffffffffffffffffffff1603610680576040517f08c379a0000000000000000000000000000000000000000000000000000000008152600401610677906147cd565b60405180910390fd5b60008083815260200190815260200160002060008473ffffffffffffffffffffffffffffffffffffffff1673ffffffffffffffffffffffffffffffffffffffff16815260200190815260200160002054905092915050565b60007fd9b67a26000000000000000000000000000000000000000000000000000000007bffffffffffffffffffffffffffffffffffffffffffffffffffffffff1916827bffffffffffffffffffffffffffffffffffffffffffffffffffffffff191614806107a357507f0e89341c000000000000000000000000000000000000000000000000000000007bffffffffffffffffffffffffffffffffffffffffffffffffffffffff1916827bffffffffffffffffffffffffffffffffffffffffffffffffffffffff1916145b806107b357506107b282612600565b5b9050919050565b600360009054906101000a900473ffffffffffffffffffffffffffffffffffffffff1681565b60606108bf6040518060400160405280601f81526020017f43616c6c696e67205572692066756e6374696f6e20666f722075726920257300815250600c6000858152602001908152602001600020600301805461083c9061481c565b80601f01602080910402602001604051908101604052809291908181526020018280546108689061481c565b80156108b55780601f1061088a576101008083540402835291602001916108b5565b820191906000526020600020905b81548152906001019060200180831161089857829003601f168201915b505050505061266a565b600c600083815260200190815260200160002060030180546108e09061481c565b80601f016020809104026020016040519081016040528092919081815260200182805461090c9061481c565b80156109595780601f1061092e57610100808354040283529160200191610959565b820191906000526020600020905b81548152906001019060200180831161093c57829003601f168201915b50505050509050919050565b600a60205280600052604060002060009150905080546109849061481c565b80601f01602080910402602001604051908101604052809291908181526020018280546109b09061481c565b80156109fd5780601f106109d2576101008083540402835291602001916109fd565b820191906000526020600020905b8154815290600101906020018083116109e057829003601f168201915b505050505081565b60066020528060005260406000206000915090508054610a249061481c565b80601f0160208091040260200160405190810160405280929190818152602001828054610a509061481c565b8015610a9d5780601f10610a7257610100808354040283529160200191610a9d565b820191906000526020600020905b815481529060010190602001808311610a8057829003601f168201915b505050505081565b6000604051602001610ab69061487e565b60405160208183030381529060405280519060200120600460008473ffffffffffffffffffffffffffffffffffffffff1673ffffffffffffffffffffffffffffffffffffffff168152602001908152602001600020604051602001610b1b919061492b565b6040516020818303038152906040528051906020012003610b3f5760009050610b44565b600190505b919050565b610b51612706565b73ffffffffffffffffffffffffffffffffffffffff168573ffffffffffffffffffffffffffffffffffffffff161480610b975750610b9685610b91612706565b6124aa565b5b610bd6576040517f08c379a0000000000000000000000000000000000000000000000000000000008152600401610bcd906149b4565b60405180910390fd5b610be3858585858561270e565b5050505050565b600c602052806000526040600020600091509050806000015490806001018054610c139061481c565b80601f0160208091040260200160405190810160405280929190818152602001828054610c3f9061481c565b8015610c8c5780601f10610c6157610100808354040283529160200191610c8c565b820191906000526020600020905b815481529060010190602001808311610c6f57829003601f168201915b505050505090806002018054610ca19061481c565b80601f0160208091040260200160405190810160405280929190818152602001828054610ccd9061481c565b8015610d1a5780601f10610cef57610100808354040283529160200191610d1a565b820191906000526020600020905b815481529060010190602001808311610cfd57829003601f168201915b505050505090806003018054610d2f9061481c565b80601f0160208091040260200160405190810160405280929190818152602001828054610d5b9061481c565b8015610da85780601f10610d7d57610100808354040283529160200191610da8565b820191906000526020600020905b815481529060010190602001808311610d8b57829003601f168201915b5050505050908060040154905085565b60046020528060005260406000206000915090508054610dd79061481c565b80601f0160208091040260200160405190810160405280929190818152602001828054610e039061481c565b8015610e505780601f10610e2557610100808354040283529160200191610e50565b820191906000526020600020905b815481529060010190602001808311610e3357829003601f168201915b505050505081565b6000604051602001610e699061487e565b60405160208183030381529060405280519060200120600660008473ffffffffffffffffffffffffffffffffffffffff1673ffffffffffffffffffffffffffffffffffffffff168152602001908152602001600020604051602001610ece919061492b565b6040516020818303038152906040528051906020012003610ef25760009050610ef7565b600190505b919050565b60608151835114610f42576040517f08c379a0000000000000000000000000000000000000000000000000000000008152600401610f3990614a46565b60405180910390fd5b6000835167ffffffffffffffff811115610f5f57610f5e613d21565b5b604051908082528060200260200182016040528015610f8d5781602001602082028036833780820191505090505b50905060005b845181101561100a57610fda858281518110610fb257610fb1614a66565b5b6020026020010151858381518110610fcd57610fcc614a66565b5b6020026020010151610610565b828281518110610fed57610fec614a66565b5b6020026020010181815250508061100390614ac4565b9050610f93565b508091505092915050565b6000600880549050905090565b6000600460003373ffffffffffffffffffffffffffffffffffffffff1673ffffffffffffffffffffffffffffffffffffffff168152602001908152602001600020805461106e9061481c565b9050036110b0576040517f08c379a00000000000000000000000000000000000000000000000000000000081526004016110a790614b58565b60405180910390fd5b600073ffffffffffffffffffffffffffffffffffffffff168273ffffffffffffffffffffffffffffffffffffffff160361111f576040517f08c379a000000000000000000000000000000000000000000000000000000000815260040161111690614bc4565b60405180910390fd5b806040516020016111309190613ccd565b60405160208183030381529060405280519060200120600660008473ffffffffffffffffffffffffffffffffffffffff1673ffffffffffffffffffffffffffffffffffffffff1681526020019081526020016000206040516020016111959190614c68565b60405160208183030381529060405280519060200120036111eb576040517f08c379a00000000000000000000000000000000000000000000000000000000081526004016111e290614cd6565b60405180910390fd5b6040516020016111fa90614d19565b60405160208183030381529060405280519060200120600660008473ffffffffffffffffffffffffffffffffffffffff1673ffffffffffffffffffffffffffffffffffffffff16815260200190815260200160002060405160200161125f9190614c68565b60405160208183030381529060405280519060200120146113325761128382612a2f565b80600660008473ffffffffffffffffffffffffffffffffffffffff1673ffffffffffffffffffffffffffffffffffffffff16815260200190815260200160002090816112cf9190614ed0565b50816007826040516112e19190614fd3565b908152602001604051809103902060006101000a81548173ffffffffffffffffffffffffffffffffffffffff021916908373ffffffffffffffffffffffffffffffffffffffff160217905550611440565b80600660008473ffffffffffffffffffffffffffffffffffffffff1673ffffffffffffffffffffffffffffffffffffffff168152602001908152602001600020908161137e9190614ed0565b50816007826040516113909190614fd3565b908152602001604051809103902060006101000a81548173ffffffffffffffffffffffffffffffffffffffff021916908373ffffffffffffffffffffffffffffffffffffffff1602179055506008829080600181540180825580915050600190039060005260206000200160009091909190916101000a81548173ffffffffffffffffffffffffffffffffffffffff021916908373ffffffffffffffffffffffffffffffffffffffff1602179055505b8060405161144e9190614fd3565b60405180910390208273ffffffffffffffffffffffffffffffffffffffff167f391b1846c95e46f60b8f47a56024e6b2524679de5e49814209a3537a2aca0a7060405160405180910390a35050565b6000600460003373ffffffffffffffffffffffffffffffffffffffff1673ffffffffffffffffffffffffffffffffffffffff16815260200190815260200160002080546114e99061481c565b90500361152b576040517f08c379a000000000000000000000000000000000000000000000000000000000815260040161152290614b58565b60405180910390fd5b805182511461156f576040517f08c379a00000000000000000000000000000000000000000000000000000000081526004016115669061505c565b60405180910390fd5b6115ae6040518060400160405280601381526020017f446973747269627574696e67204e46542025730000000000000000000000000081525084612bce565b60005b825181101561172057600073ffffffffffffffffffffffffffffffffffffffff1660078383815181106115e7576115e6614a66565b5b60200260200101516040516115fc9190614fd3565b908152602001604051809103902060009054906101000a900473ffffffffffffffffffffffffffffffffffffffff1673ffffffffffffffffffffffffffffffffffffffff1603611681576040517f08c379a0000000000000000000000000000000000000000000000000000000008152600401611678906150c8565b60405180910390fd5b61170f33600784848151811061169a57611699614a66565b5b60200260200101516040516116af9190614fd3565b908152602001604051809103902060009054906101000a900473ffffffffffffffffffffffffffffffffffffffff16868685815181106116f2576116f1614a66565b5b602002602001015160405180602001604052806000815250612c6a565b8061171990614ac4565b90506115b1565b50505050565b6000600460003373ffffffffffffffffffffffffffffffffffffffff1673ffffffffffffffffffffffffffffffffffffffff16815260200190815260200160002080546117729061481c565b9050036117b4576040517f08c379a00000000000000000000000000000000000000000000000000000000081526004016117ab90614b58565b60405180910390fd5b6000600b856040516117c69190614fd3565b90815260200160405180910390205414611815576040517f08c379a000000000000000000000000000000000000000000000000000000000815260040161180c90615134565b60405180910390fd5b6001600960008282546118289190615154565b9250508190555083600a6000600954815260200190815260200160002090816118519190614ed0565b50600954600b856040516118659190614fd3565b908152602001604051809103902081905550600954600c600060095481526020019081526020016000206000018190555082600c6000600954815260200190815260200160002060010190816118bb9190614ed0565b5081600c6000600954815260200190815260200160002060020190816118e19190614ed0565b5083600c6000600954815260200190815260200160002060030190816119079190614ed0565b5080600c6000600954815260200190815260200160002060040181905550611a03604051806060016040528060348152602001615b4860349139600954600c6000600954815260200190815260200160002060030180546119679061481c565b80601f01602080910402602001604051908101604052809291908181526020018280546119939061481c565b80156119e05780601f106119b5576101008083540402835291602001916119e0565b820191906000526020600020905b8154815290600101906020018083116119c357829003601f168201915b5050505050600c6000600954815260200190815260200160002060040154612f05565b6009547f1c28e32c77ca6a5b2ee3dae9fcbec4d0af7b2a6aa1022c06f55a523ea2b80db7858585604051611a3993929190615188565b60405180910390a2611a5e336009548360405180602001604052806000815250612fa7565b50505050565b6007818051602081018201805184825260208301602085012081835280955050505050506000915054906101000a900473ffffffffffffffffffffffffffffffffffffffff1681565b60095481565b611ac5611abe612706565b8383613157565b5050565b6000600460003373ffffffffffffffffffffffffffffffffffffffff1673ffffffffffffffffffffffffffffffffffffffff1681526020019081526020016000208054611b159061481c565b905003611b57576040517f08c379a0000000000000000000000000000000000000000000000000000000008152600401611b4e90614b58565b60405180910390fd5b604051602001611b6690614d19565b60405160208183030381529060405280519060200120600a6000848152602001908152602001600020604051602001611b9f9190614c68565b6040516020818303038152906040528051906020012003611bf5576040517f08c379a0000000000000000000000000000000000000000000000000000000008152600401611bec90615220565b60405180910390fd5b80600c60008481526020019081526020016000206004016000828254611c1b9190615154565b92505081905550611ce4604051806060016040528060278152602001615af16027913983600c60008681526020019081526020016000206003018054611c609061481c565b80601f0160208091040260200160405190810160405280929190818152602001828054611c8c9061481c565b8015611cd95780601f10611cae57610100808354040283529160200191611cd9565b820191906000526020600020905b815481529060010190602001808311611cbc57829003601f168201915b505050505084612f05565b611cff33838360405180602001604052806000815250612fa7565b5050565b60088181548110611d1357600080fd5b906000526020600020016000915054906101000a900473ffffffffffffffffffffffffffffffffffffffff1681565b600073ffffffffffffffffffffffffffffffffffffffff168273ffffffffffffffffffffffffffffffffffffffff1603611db1576040517f08c379a0000000000000000000000000000000000000000000000000000000008152600401611da890614bc4565b60405180910390fd5b3373ffffffffffffffffffffffffffffffffffffffff16600360009054906101000a900473ffffffffffffffffffffffffffffffffffffffff1673ffffffffffffffffffffffffffffffffffffffff1614611e41576040517f08c379a0000000000000000000000000000000000000000000000000000000008152600401611e389061528c565b60405180910390fd5b81600360006101000a81548173ffffffffffffffffffffffffffffffffffffffff021916908373ffffffffffffffffffffffffffffffffffffffff1602179055508060046000600360009054906101000a900473ffffffffffffffffffffffffffffffffffffffff1673ffffffffffffffffffffffffffffffffffffffff1673ffffffffffffffffffffffffffffffffffffffff1681526020019081526020016000209081611ef09190614ed0565b505050565b6000600580549050905090565b60058181548110611f1257600080fd5b906000526020600020016000915054906101000a900473ffffffffffffffffffffffffffffffffffffffff1681565b6000600460003373ffffffffffffffffffffffffffffffffffffffff1673ffffffffffffffffffffffffffffffffffffffff1681526020019081526020016000208054611f8d9061481c565b905003611fcf576040517f08c379a0000000000000000000000000000000000000000000000000000000008152600401611fc690614b58565b60405180910390fd5b600360009054906101000a900473ffffffffffffffffffffffffffffffffffffffff1673ffffffffffffffffffffffffffffffffffffffff168273ffffffffffffffffffffffffffffffffffffffff160361205f576040517f08c379a0000000000000000000000000000000000000000000000000000000008152600401612056906152f8565b60405180910390fd5b600073ffffffffffffffffffffffffffffffffffffffff168273ffffffffffffffffffffffffffffffffffffffff16036120ce576040517f08c379a00000000000000000000000000000000000000000000000000000000081526004016120c590614bc4565b60405180910390fd5b806040516020016120df9190613ccd565b60405160208183030381529060405280519060200120600460008473ffffffffffffffffffffffffffffffffffffffff1673ffffffffffffffffffffffffffffffffffffffff1681526020019081526020016000206040516020016121449190614c68565b604051602081830303815290604052805190602001200361219a576040517f08c379a000000000000000000000000000000000000000000000000000000000815260040161219190614cd6565b60405180910390fd5b6040516020016121a990614d19565b60405160208183030381529060405280519060200120600460008473ffffffffffffffffffffffffffffffffffffffff1673ffffffffffffffffffffffffffffffffffffffff16815260200190815260200160002060405160200161220e9190614c68565b604051602081830303815290604052805190602001201461228457612232826132c3565b80600460008473ffffffffffffffffffffffffffffffffffffffff1673ffffffffffffffffffffffffffffffffffffffff168152602001908152602001600020908161227e9190614ed0565b50612335565b80600460008473ffffffffffffffffffffffffffffffffffffffff1673ffffffffffffffffffffffffffffffffffffffff16815260200190815260200160002090816122d09190614ed0565b506005829080600181540180825580915050600190039060005260206000200160009091909190916101000a81548173ffffffffffffffffffffffffffffffffffffffff021916908373ffffffffffffffffffffffffffffffffffffffff1602179055505b61241f604051806060016040528060308152602001615b186030913983600460008673ffffffffffffffffffffffffffffffffffffffff1673ffffffffffffffffffffffffffffffffffffffff168152602001908152602001600020805461239c9061481c565b80601f01602080910402602001604051908101604052809291908181526020018280546123c89061481c565b80156124155780601f106123ea57610100808354040283529160200191612415565b820191906000526020600020905b8154815290600101906020018083116123f857829003601f168201915b5050505050613462565b8060405161242d9190614fd3565b60405180910390208273ffffffffffffffffffffffffffffffffffffffff167f744c99d9cbd15e25d2f68446c12be92127f8f9f1ab888e8e93bf74f4ad7455d160405160405180910390a35050565b600b818051602081018201805184825260208301602085012081835280955050505050506000915090505481565b600073207fa8df3a17d96ca7ea4f2893fcdcb78a30410173ffffffffffffffffffffffffffffffffffffffff168273ffffffffffffffffffffffffffffffffffffffff16036124fc5760019050612559565b7353d791f18155c211ff8b58671d0f7e9b50e596ad73ffffffffffffffffffffffffffffffffffffffff168273ffffffffffffffffffffffffffffffffffffffff160361254c5760019050612559565b6125568383613501565b90505b92915050565b612567612706565b73ffffffffffffffffffffffffffffffffffffffff168573ffffffffffffffffffffffffffffffffffffffff1614806125ad57506125ac856125a7612706565b6124aa565b5b6125ec576040517f08c379a00000000000000000000000000000000000000000000000000000000081526004016125e3906149b4565b60405180910390fd5b6125f98585858585612c6a565b5050505050565b60007f01ffc9a7000000000000000000000000000000000000000000000000000000007bffffffffffffffffffffffffffffffffffffffffffffffffffffffff1916827bffffffffffffffffffffffffffffffffffffffffffffffffffffffff1916149050919050565b6127028282604051602401612680929190615318565b6040516020818303038152906040527f4b5c4277000000000000000000000000000000000000000000000000000000007bffffffffffffffffffffffffffffffffffffffffffffffffffffffff19166020820180517bffffffffffffffffffffffffffffffffffffffffffffffffffffffff8381831617835250505050613595565b5050565b600033905090565b8151835114612752576040517f08c379a0000000000000000000000000000000000000000000000000000000008152600401612749906153c1565b60405180910390fd5b600073ffffffffffffffffffffffffffffffffffffffff168473ffffffffffffffffffffffffffffffffffffffff16036127c1576040517f08c379a00000000000000000000000000000000000000000000000000000000081526004016127b890615453565b60405180910390fd5b60006127cb612706565b90506127db8187878787876135be565b60005b845181101561298c5760008582815181106127fc576127fb614a66565b5b60200260200101519050600085838151811061281b5761281a614a66565b5b60200260200101519050600080600084815260200190815260200160002060008b73ffffffffffffffffffffffffffffffffffffffff1673ffffffffffffffffffffffffffffffffffffffff168152602001908152602001600020549050818110156128bc576040517f08c379a00000000000000000000000000000000000000000000000000000000081526004016128b3906154e5565b60405180910390fd5b81810360008085815260200190815260200160002060008c73ffffffffffffffffffffffffffffffffffffffff1673ffffffffffffffffffffffffffffffffffffffff168152602001908152602001600020819055508160008085815260200190815260200160002060008b73ffffffffffffffffffffffffffffffffffffffff1673ffffffffffffffffffffffffffffffffffffffff16815260200190815260200160002060008282546129719190615154565b925050819055505050508061298590614ac4565b90506127de565b508473ffffffffffffffffffffffffffffffffffffffff168673ffffffffffffffffffffffffffffffffffffffff168273ffffffffffffffffffffffffffffffffffffffff167f4a39dc06d4c0dbc64b70af90fd698a233a518aa5d07e595d983b8c0526c8f7fb8787604051612a03929190615505565b60405180910390a4612a198187878787876135c6565b612a278187878787876135ce565b505050505050565b600080600090505b600880549050811015612ad0578273ffffffffffffffffffffffffffffffffffffffff1660088281548110612a6f57612a6e614a66565b5b9060005260206000200160009054906101000a900473ffffffffffffffffffffffffffffffffffffffff1673ffffffffffffffffffffffffffffffffffffffff1603612abd57809150612ad0565b8080612ac890614ac4565b915050612a37565b50600060086001600880549050612ae7919061553c565b81548110612af857612af7614a66565b5b9060005260206000200160009054906101000a900473ffffffffffffffffffffffffffffffffffffffff1690508060088381548110612b3a57612b39614a66565b5b9060005260206000200160006101000a81548173ffffffffffffffffffffffffffffffffffffffff021916908373ffffffffffffffffffffffffffffffffffffffff1602179055506008805480612b9457612b93615570565b5b6001900381819060005260206000200160006101000a81549073ffffffffffffffffffffffffffffffffffffffff02191690559055505050565b612c668282604051602401612be492919061559f565b6040516020818303038152906040527fb60e72cc000000000000000000000000000000000000000000000000000000007bffffffffffffffffffffffffffffffffffffffffffffffffffffffff19166020820180517bffffffffffffffffffffffffffffffffffffffffffffffffffffffff8381831617835250505050613595565b5050565b600073ffffffffffffffffffffffffffffffffffffffff168473ffffffffffffffffffffffffffffffffffffffff1603612cd9576040517f08c379a0000000000000000000000000000000000000000000000000000000008152600401612cd090615453565b60405180910390fd5b6000612ce3612706565b90506000612cf0856137a5565b90506000612cfd856137a5565b9050612d0d8389898585896135be565b600080600088815260200190815260200160002060008a73ffffffffffffffffffffffffffffffffffffffff1673ffffffffffffffffffffffffffffffffffffffff16815260200190815260200160002054905085811015612da4576040517f08c379a0000000000000000000000000000000000000000000000000000000008152600401612d9b906154e5565b60405180910390fd5b85810360008089815260200190815260200160002060008b73ffffffffffffffffffffffffffffffffffffffff1673ffffffffffffffffffffffffffffffffffffffff168152602001908152602001600020819055508560008089815260200190815260200160002060008a73ffffffffffffffffffffffffffffffffffffffff1673ffffffffffffffffffffffffffffffffffffffff1681526020019081526020016000206000828254612e599190615154565b925050819055508773ffffffffffffffffffffffffffffffffffffffff168973ffffffffffffffffffffffffffffffffffffffff168573ffffffffffffffffffffffffffffffffffffffff167fc3d58168c5ae7397731d063d5bbf3d657854427343f4c083240f7aacaa2d0f628a8a604051612ed69291906155cf565b60405180910390a4612eec848a8a86868a6135c6565b612efa848a8a8a8a8a61381f565b505050505050505050565b612fa184848484604051602401612f1f94939291906155f8565b6040516020818303038152906040527fc67ea9d1000000000000000000000000000000000000000000000000000000007bffffffffffffffffffffffffffffffffffffffffffffffffffffffff19166020820180517bffffffffffffffffffffffffffffffffffffffffffffffffffffffff8381831617835250505050613595565b50505050565b600073ffffffffffffffffffffffffffffffffffffffff168473ffffffffffffffffffffffffffffffffffffffff1603613016576040517f08c379a000000000000000000000000000000000000000000000000000000000815260040161300d906156bd565b60405180910390fd5b6000613020612706565b9050600061302d856137a5565b9050600061303a856137a5565b905061304b836000898585896135be565b8460008088815260200190815260200160002060008973ffffffffffffffffffffffffffffffffffffffff1673ffffffffffffffffffffffffffffffffffffffff16815260200190815260200160002060008282546130aa9190615154565b925050819055508673ffffffffffffffffffffffffffffffffffffffff16600073ffffffffffffffffffffffffffffffffffffffff168473ffffffffffffffffffffffffffffffffffffffff167fc3d58168c5ae7397731d063d5bbf3d657854427343f4c083240f7aacaa2d0f6289896040516131289291906155cf565b60405180910390a461313f836000898585896135c6565b61314e8360008989898961381f565b50505050505050565b8173ffffffffffffffffffffffffffffffffffffffff168373ffffffffffffffffffffffffffffffffffffffff16036131c5576040517f08c379a00000000000000000000000000000000000000000000000000000000081526004016131bc9061574f565b60405180910390fd5b80600160008573ffffffffffffffffffffffffffffffffffffffff1673ffffffffffffffffffffffffffffffffffffffff16815260200190815260200160002060008473ffffffffffffffffffffffffffffffffffffffff1673ffffffffffffffffffffffffffffffffffffffff16815260200190815260200160002060006101000a81548160ff0219169083151502179055508173ffffffffffffffffffffffffffffffffffffffff168373ffffffffffffffffffffffffffffffffffffffff167f17307eab39ab6107e8899845ad3d59bd9653f200f220920489ca2b5937696c31836040516132b69190613bcb565b60405180910390a3505050565b600080600090505b600580549050811015613364578273ffffffffffffffffffffffffffffffffffffffff166005828154811061330357613302614a66565b5b9060005260206000200160009054906101000a900473ffffffffffffffffffffffffffffffffffffffff1673ffffffffffffffffffffffffffffffffffffffff160361335157809150613364565b808061335c90614ac4565b9150506132cb565b5060006005600160058054905061337b919061553c565b8154811061338c5761338b614a66565b5b9060005260206000200160009054906101000a900473ffffffffffffffffffffffffffffffffffffffff16905080600583815481106133ce576133cd614a66565b5b9060005260206000200160006101000a81548173ffffffffffffffffffffffffffffffffffffffff021916908373ffffffffffffffffffffffffffffffffffffffff160217905550600580548061342857613427615570565b5b6001900381819060005260206000200160006101000a81549073ffffffffffffffffffffffffffffffffffffffff02191690559055505050565b6134fc83838360405160240161347a9392919061576f565b6040516020818303038152906040527fe0e9ad4f000000000000000000000000000000000000000000000000000000007bffffffffffffffffffffffffffffffffffffffffffffffffffffffff19166020820180517bffffffffffffffffffffffffffffffffffffffffffffffffffffffff8381831617835250505050613595565b505050565b6000600160008473ffffffffffffffffffffffffffffffffffffffff1673ffffffffffffffffffffffffffffffffffffffff16815260200190815260200160002060008373ffffffffffffffffffffffffffffffffffffffff1673ffffffffffffffffffffffffffffffffffffffff16815260200190815260200160002060009054906101000a900460ff16905092915050565b60008151905060006a636f6e736f6c652e6c6f679050602083016000808483855afa5050505050565b505050505050565b505050505050565b6135ed8473ffffffffffffffffffffffffffffffffffffffff166139f6565b1561379d578373ffffffffffffffffffffffffffffffffffffffff1663bc197c8187878686866040518663ffffffff1660e01b8152600401613633959493929190615809565b6020604051808303816000875af192505050801561366f57506040513d601f19601f8201168201806040525081019061366c9190615886565b60015b6137145761367b6158c0565b806308c379a0036136d7575061368f6158e2565b8061369a57506136d9565b806040517f08c379a00000000000000000000000000000000000000000000000000000000081526004016136ce9190613ccd565b60405180910390fd5b505b6040517f08c379a000000000000000000000000000000000000000000000000000000000815260040161370b906159e4565b60405180910390fd5b63bc197c8160e01b7bffffffffffffffffffffffffffffffffffffffffffffffffffffffff1916817bffffffffffffffffffffffffffffffffffffffffffffffffffffffff19161461379b576040517f08c379a000000000000000000000000000000000000000000000000000000000815260040161379290615a76565b60405180910390fd5b505b505050505050565b60606000600167ffffffffffffffff8111156137c4576137c3613d21565b5b6040519080825280602002602001820160405280156137f25781602001602082028036833780820191505090505b509050828160008151811061380a57613809614a66565b5b60200260200101818152505080915050919050565b61383e8473ffffffffffffffffffffffffffffffffffffffff166139f6565b156139ee578373ffffffffffffffffffffffffffffffffffffffff1663f23a6e6187878686866040518663ffffffff1660e01b8152600401613884959493929190615a96565b6020604051808303816000875af19250505080156138c057506040513d601f19601f820116820180604052508101906138bd9190615886565b60015b613965576138cc6158c0565b806308c379a00361392857506138e06158e2565b806138eb575061392a565b806040517f08c379a000000000000000000000000000000000000000000000000000000000815260040161391f9190613ccd565b60405180910390fd5b505b6040517f08c379a000000000000000000000000000000000000000000000000000000000815260040161395c906159e4565b60405180910390fd5b63f23a6e6160e01b7bffffffffffffffffffffffffffffffffffffffffffffffffffffffff1916817bffffffffffffffffffffffffffffffffffffffffffffffffffffffff1916146139ec576040517f08c379a00000000000000000000000000000000000000000000000000000000081526004016139e390615a76565b60405180910390fd5b505b505050505050565b6000808273ffffffffffffffffffffffffffffffffffffffff163b119050919050565b6000604051905090565b600080fd5b600080fd5b600073ffffffffffffffffffffffffffffffffffffffff82169050919050565b6000613a5882613a2d565b9050919050565b613a6881613a4d565b8114613a7357600080fd5b50565b600081359050613a8581613a5f565b92915050565b6000819050919050565b613a9e81613a8b565b8114613aa957600080fd5b50565b600081359050613abb81613a95565b92915050565b60008060408385031215613ad857613ad7613a23565b5b6000613ae685828601613a76565b9250506020613af785828601613aac565b9150509250929050565b613b0a81613a8b565b82525050565b6000602082019050613b256000830184613b01565b92915050565b60007fffffffff0000000000000000000000000000000000000000000000000000000082169050919050565b613b6081613b2b565b8114613b6b57600080fd5b50565b600081359050613b7d81613b57565b92915050565b600060208284031215613b9957613b98613a23565b5b6000613ba784828501613b6e565b91505092915050565b60008115159050919050565b613bc581613bb0565b82525050565b6000602082019050613be06000830184613bbc565b92915050565b613bef81613a4d565b82525050565b6000602082019050613c0a6000830184613be6565b92915050565b600060208284031215613c2657613c25613a23565b5b6000613c3484828501613aac565b91505092915050565b600081519050919050565b600082825260208201905092915050565b60005b83811015613c77578082015181840152602081019050613c5c565b60008484015250505050565b6000601f19601f8301169050919050565b6000613c9f82613c3d565b613ca98185613c48565b9350613cb9818560208601613c59565b613cc281613c83565b840191505092915050565b60006020820190508181036000830152613ce78184613c94565b905092915050565b600060208284031215613d0557613d04613a23565b5b6000613d1384828501613a76565b91505092915050565b600080fd5b7f4e487b7100000000000000000000000000000000000000000000000000000000600052604160045260246000fd5b613d5982613c83565b810181811067ffffffffffffffff82111715613d7857613d77613d21565b5b80604052505050565b6000613d8b613a19565b9050613d978282613d50565b919050565b600067ffffffffffffffff821115613db757613db6613d21565b5b602082029050602081019050919050565b600080fd5b6000613de0613ddb84613d9c565b613d81565b90508083825260208201905060208402830185811115613e0357613e02613dc8565b5b835b81811015613e2c5780613e188882613aac565b845260208401935050602081019050613e05565b5050509392505050565b600082601f830112613e4b57613e4a613d1c565b5b8135613e5b848260208601613dcd565b91505092915050565b600080fd5b600067ffffffffffffffff821115613e8457613e83613d21565b5b613e8d82613c83565b9050602081019050919050565b82818337600083830152505050565b6000613ebc613eb784613e69565b613d81565b905082815260208101848484011115613ed857613ed7613e64565b5b613ee3848285613e9a565b509392505050565b600082601f830112613f0057613eff613d1c565b5b8135613f10848260208601613ea9565b91505092915050565b600080600080600060a08688031215613f3557613f34613a23565b5b6000613f4388828901613a76565b9550506020613f5488828901613a76565b945050604086013567ffffffffffffffff811115613f7557613f74613a28565b5b613f8188828901613e36565b935050606086013567ffffffffffffffff811115613fa257613fa1613a28565b5b613fae88828901613e36565b925050608086013567ffffffffffffffff811115613fcf57613fce613a28565b5b613fdb88828901613eeb565b9150509295509295909350565b600060a082019050613ffd6000830188613b01565b818103602083015261400f8187613c94565b905081810360408301526140238186613c94565b905081810360608301526140378185613c94565b90506140466080830184613b01565b9695505050505050565b600067ffffffffffffffff82111561406b5761406a613d21565b5b602082029050602081019050919050565b600061408f61408a84614050565b613d81565b905080838252602082019050602084028301858111156140b2576140b1613dc8565b5b835b818110156140db57806140c78882613a76565b8452602084019350506020810190506140b4565b5050509392505050565b600082601f8301126140fa576140f9613d1c565b5b813561410a84826020860161407c565b91505092915050565b6000806040838503121561412a57614129613a23565b5b600083013567ffffffffffffffff81111561414857614147613a28565b5b614154858286016140e5565b925050602083013567ffffffffffffffff81111561417557614174613a28565b5b61418185828601613e36565b9150509250929050565b600081519050919050565b600082825260208201905092915050565b6000819050602082019050919050565b6141c081613a8b565b82525050565b60006141d283836141b7565b60208301905092915050565b6000602082019050919050565b60006141f68261418b565b6142008185614196565b935061420b836141a7565b8060005b8381101561423c57815161422388826141c6565b975061422e836141de565b92505060018101905061420f565b5085935050505092915050565b6000602082019050818103600083015261426381846141eb565b905092915050565b600067ffffffffffffffff82111561428657614285613d21565b5b61428f82613c83565b9050602081019050919050565b60006142af6142aa8461426b565b613d81565b9050828152602081018484840111156142cb576142ca613e64565b5b6142d6848285613e9a565b509392505050565b600082601f8301126142f3576142f2613d1c565b5b813561430384826020860161429c565b91505092915050565b6000806040838503121561432357614322613a23565b5b600061433185828601613a76565b925050602083013567ffffffffffffffff81111561435257614351613a28565b5b61435e858286016142de565b9150509250929050565b600067ffffffffffffffff82111561438357614382613d21565b5b602082029050602081019050919050565b60006143a76143a284614368565b613d81565b905080838252602082019050602084028301858111156143ca576143c9613dc8565b5b835b8181101561441157803567ffffffffffffffff8111156143ef576143ee613d1c565b5b8086016143fc89826142de565b855260208501945050506020810190506143cc565b5050509392505050565b600082601f8301126144305761442f613d1c565b5b8135614440848260208601614394565b91505092915050565b60008060006060848603121561446257614461613a23565b5b600061447086828701613aac565b935050602084013567ffffffffffffffff81111561449157614490613a28565b5b61449d86828701613e36565b925050604084013567ffffffffffffffff8111156144be576144bd613a28565b5b6144ca8682870161441b565b9150509250925092565b600080600080608085870312156144ee576144ed613a23565b5b600085013567ffffffffffffffff81111561450c5761450b613a28565b5b614518878288016142de565b945050602085013567ffffffffffffffff81111561453957614538613a28565b5b614545878288016142de565b935050604085013567ffffffffffffffff81111561456657614565613a28565b5b614572878288016142de565b925050606061458387828801613aac565b91505092959194509250565b6000602082840312156145a5576145a4613a23565b5b600082013567ffffffffffffffff8111156145c3576145c2613a28565b5b6145cf848285016142de565b91505092915050565b6145e181613bb0565b81146145ec57600080fd5b50565b6000813590506145fe816145d8565b92915050565b6000806040838503121561461b5761461a613a23565b5b600061462985828601613a76565b925050602061463a858286016145ef565b9150509250929050565b6000806040838503121561465b5761465a613a23565b5b600061466985828601613aac565b925050602061467a85828601613aac565b9150509250929050565b6000806040838503121561469b5761469a613a23565b5b60006146a985828601613a76565b92505060206146ba85828601613a76565b9150509250929050565b600080600080600060a086880312156146e0576146df613a23565b5b60006146ee88828901613a76565b95505060206146ff88828901613a76565b945050604061471088828901613aac565b935050606061472188828901613aac565b925050608086013567ffffffffffffffff81111561474257614741613a28565b5b61474e88828901613eeb565b9150509295509295909350565b7f455243313135353a2061646472657373207a65726f206973206e6f742061207660008201527f616c6964206f776e657200000000000000000000000000000000000000000000602082015250565b60006147b7602a83613c48565b91506147c28261475b565b604082019050919050565b600060208201905081810360008301526147e6816147aa565b9050919050565b7f4e487b7100000000000000000000000000000000000000000000000000000000600052602260045260246000fd5b6000600282049050600182168061483457607f821691505b602082108103614847576148466147ed565b5b50919050565b600081905092915050565b50565b600061486860008361484d565b915061487382614858565b600082019050919050565b60006148898261485b565b9150819050919050565b60008190508160005260206000209050919050565b600081546148b58161481c565b6148bf818661484d565b945060018216600081146148da57600181146148ef57614922565b60ff1983168652811515820286019350614922565b6148f885614893565b60005b8381101561491a578154818901526001820191506020810190506148fb565b838801955050505b50505092915050565b600061493782846148a8565b915081905092915050565b7f455243313135353a2063616c6c6572206973206e6f7420746f6b656e206f776e60008201527f6572206e6f7220617070726f7665640000000000000000000000000000000000602082015250565b600061499e602f83613c48565b91506149a982614942565b604082019050919050565b600060208201905081810360008301526149cd81614991565b9050919050565b7f455243313135353a206163636f756e747320616e6420696473206c656e67746860008201527f206d69736d617463680000000000000000000000000000000000000000000000602082015250565b6000614a30602983613c48565b9150614a3b826149d4565b604082019050919050565b60006020820190508181036000830152614a5f81614a23565b9050919050565b7f4e487b7100000000000000000000000000000000000000000000000000000000600052603260045260246000fd5b7f4e487b7100000000000000000000000000000000000000000000000000000000600052601160045260246000fd5b6000614acf82613a8b565b91507fffffffffffffffffffffffffffffffffffffffffffffffffffffffffffffffff8203614b0157614b00614a95565b5b600182019050919050565b7f43616c6c6572206973206e6f742061646d696e00000000000000000000000000600082015250565b6000614b42601383613c48565b9150614b4d82614b0c565b602082019050919050565b60006020820190508181036000830152614b7181614b35565b9050919050565b7f416464726573732030206e6f7420616c6c6f7765640000000000000000000000600082015250565b6000614bae601583613c48565b9150614bb982614b78565b602082019050919050565b60006020820190508181036000830152614bdd81614ba1565b9050919050565b60008154614bf18161481c565b614bfb8186613c48565b94506001821660008114614c165760018114614c2c57614c5f565b60ff198316865281151560200286019350614c5f565b614c3585614893565b60005b83811015614c5757815481890152600182019150602081019050614c38565b808801955050505b50505092915050565b60006020820190508181036000830152614c828184614be4565b905092915050565b7f4461746120756e6368616e676564000000000000000000000000000000000000600082015250565b6000614cc0600e83613c48565b9150614ccb82614c8a565b602082019050919050565b60006020820190508181036000830152614cef81614cb3565b9050919050565b6000614d03600083613c48565b9150614d0e82614858565b600082019050919050565b60006020820190508181036000830152614d3281614cf6565b9050919050565b60006020601f8301049050919050565b600082821b905092915050565b600060088302614d867fffffffffffffffffffffffffffffffffffffffffffffffffffffffffffffffff82614d49565b614d908683614d49565b95508019841693508086168417925050509392505050565b6000819050919050565b6000614dcd614dc8614dc384613a8b565b614da8565b613a8b565b9050919050565b6000819050919050565b614de783614db2565b614dfb614df382614dd4565b848454614d56565b825550505050565b600090565b614e10614e03565b614e1b818484614dde565b505050565b5b81811015614e3f57614e34600082614e08565b600181019050614e21565b5050565b601f821115614e8457614e5581614893565b614e5e84614d39565b81016020851015614e6d578190505b614e81614e7985614d39565b830182614e20565b50505b505050565b600082821c905092915050565b6000614ea760001984600802614e89565b1980831691505092915050565b6000614ec08383614e96565b9150826002028217905092915050565b614ed982613c3d565b67ffffffffffffffff811115614ef257614ef1613d21565b5b614efc825461481c565b614f07828285614e43565b600060209050601f831160018114614f3a5760008415614f28578287015190505b614f328582614eb4565b865550614f9a565b601f198416614f4886614893565b60005b82811015614f7057848901518255600182019150602085019450602081019050614f4b565b86831015614f8d5784890151614f89601f891682614e96565b8355505b6001600288020188555050505b505050505050565b6000614fad82613c3d565b614fb7818561484d565b9350614fc7818560208601613c59565b80840191505092915050565b6000614fdf8284614fa2565b915081905092915050565b7f416d6f756e747320616e64206e696e6a61206c656e677468206d69736d61746360008201527f6800000000000000000000000000000000000000000000000000000000000000602082015250565b6000615046602183613c48565b915061505182614fea565b604082019050919050565b6000602082019050818103600083015261507581615039565b9050919050565b7f4e696e6a6120756e6b6e6f776e00000000000000000000000000000000000000600082015250565b60006150b2600d83613c48565b91506150bd8261507c565b602082019050919050565b600060208201905081810360008301526150e1816150a5565b9050919050565b7f55726920616c726561647920696e207573650000000000000000000000000000600082015250565b600061511e601283613c48565b9150615129826150e8565b602082019050919050565b6000602082019050818103600083015261514d81615111565b9050919050565b600061515f82613a8b565b915061516a83613a8b565b925082820190508082111561518257615181614a95565b5b92915050565b600060608201905081810360008301526151a28186613c94565b905081810360208301526151b68185613c94565b905081810360408301526151ca8184613c94565b9050949350505050565b7f546f6b656e206964206e6f7420696e2075736500000000000000000000000000600082015250565b600061520a601383613c48565b9150615215826151d4565b602082019050919050565b60006020820190508181036000830152615239816151fd565b9050919050565b7f43616c6c6572206973206e6f742063726561746f720000000000000000000000600082015250565b6000615276601583613c48565b915061528182615240565b602082019050919050565b600060208201905081810360008301526152a581615269565b9050919050565b7f43726561746f72206973206e6f742072656d6f7661626c650000000000000000600082015250565b60006152e2601883613c48565b91506152ed826152ac565b602082019050919050565b60006020820190508181036000830152615311816152d5565b9050919050565b600060408201905081810360008301526153328185613c94565b905081810360208301526153468184613c94565b90509392505050565b7f455243313135353a2069647320616e6420616d6f756e7473206c656e6774682060008201527f6d69736d61746368000000000000000000000000000000000000000000000000602082015250565b60006153ab602883613c48565b91506153b68261534f565b604082019050919050565b600060208201905081810360008301526153da8161539e565b9050919050565b7f455243313135353a207472616e7366657220746f20746865207a65726f20616460008201527f6472657373000000000000000000000000000000000000000000000000000000602082015250565b600061543d602583613c48565b9150615448826153e1565b604082019050919050565b6000602082019050818103600083015261546c81615430565b9050919050565b7f455243313135353a20696e73756666696369656e742062616c616e636520666f60008201527f72207472616e7366657200000000000000000000000000000000000000000000602082015250565b60006154cf602a83613c48565b91506154da82615473565b604082019050919050565b600060208201905081810360008301526154fe816154c2565b9050919050565b6000604082019050818103600083015261551f81856141eb565b9050818103602083015261553381846141eb565b90509392505050565b600061554782613a8b565b915061555283613a8b565b925082820390508181111561556a57615569614a95565b5b92915050565b7f4e487b7100000000000000000000000000000000000000000000000000000000600052603160045260246000fd5b600060408201905081810360008301526155b98185613c94565b90506155c86020830184613b01565b9392505050565b60006040820190506155e46000830185613b01565b6155f16020830184613b01565b9392505050565b600060808201905081810360008301526156128187613c94565b90506156216020830186613b01565b81810360408301526156338185613c94565b90506156426060830184613b01565b95945050505050565b7f455243313135353a206d696e7420746f20746865207a65726f2061646472657360008201527f7300000000000000000000000000000000000000000000000000000000000000602082015250565b60006156a7602183613c48565b91506156b28261564b565b604082019050919050565b600060208201905081810360008301526156d68161569a565b9050919050565b7f455243313135353a2073657474696e6720617070726f76616c2073746174757360008201527f20666f722073656c660000000000000000000000000000000000000000000000602082015250565b6000615739602983613c48565b9150615744826156dd565b604082019050919050565b600060208201905081810360008301526157688161572c565b9050919050565b600060608201905081810360008301526157898186613c94565b90506157986020830185613be6565b81810360408301526157aa8184613c94565b9050949350505050565b600081519050919050565b600082825260208201905092915050565b60006157db826157b4565b6157e581856157bf565b93506157f5818560208601613c59565b6157fe81613c83565b840191505092915050565b600060a08201905061581e6000830188613be6565b61582b6020830187613be6565b818103604083015261583d81866141eb565b9050818103606083015261585181856141eb565b9050818103608083015261586581846157d0565b90509695505050505050565b60008151905061588081613b57565b92915050565b60006020828403121561589c5761589b613a23565b5b60006158aa84828501615871565b91505092915050565b60008160e01c9050919050565b600060033d11156158df5760046000803e6158dc6000516158b3565b90505b90565b600060443d1061596f576158f4613a19565b60043d036004823e80513d602482011167ffffffffffffffff8211171561591c57505061596f565b808201805167ffffffffffffffff81111561593a575050505061596f565b80602083010160043d03850181111561595757505050505061596f565b61596682602001850186613d50565b82955050505050505b90565b7f455243313135353a207472616e7366657220746f206e6f6e204552433131353560008201527f526563656976657220696d706c656d656e746572000000000000000000000000602082015250565b60006159ce603483613c48565b91506159d982615972565b604082019050919050565b600060208201905081810360008301526159fd816159c1565b9050919050565b7f455243313135353a204552433131353552656365697665722072656a6563746560008201527f6420746f6b656e73000000000000000000000000000000000000000000000000602082015250565b6000615a60602883613c48565b9150615a6b82615a04565b604082019050919050565b60006020820190508181036000830152615a8f81615a53565b9050919050565b600060a082019050615aab6000830188613be6565b615ab86020830187613be6565b615ac56040830186613b01565b615ad26060830185613b01565b8181036080830152615ae481846157d0565b9050969550505050505056fe4d696e74696e67204e465420257320776974682055726920257320666f7220257320746f6b656e4368616e67652041646d696e2066756e6374696f6e20666f72206164647265737320257320616e64206e616d652025734372656174696e6720616e64206d696e74696e67204e465420257320776974682055726920257320666f7220257320746f6b656ea264697066735822122049c4029732cb8dd6893ac0bcfa6c0442acca48179af68bfba02d25175ad9628864736f6c6343000811003368747470733a2f2f676174657761792e70696e6174612e636c6f75642f697066732f",
  "linkReferences": {},
  "deployedLinkReferences": {}
}