{
  "_format": "hh-sol-artifact-1",
  "contractName": "NinjaNFTNew",
  "sourceName": "contracts/NinjaNFTNew.sol",
  "abi": [
    {
      "inputs": [
        {
          "internalType": "string",
          "name": "_name",
          "type": "string"
        },
        {
          "internalType": "address",
          "name": "_creator",
          "type": "address"
        },
        {
          "internalType": "string",
          "name": "_creatorName",
          "type": "string"
        }
      ],
      "stateMutability": "nonpayable",
      "type": "constructor"
    },
    {
      "anonymous": false,
      "inputs": [
        {
          "indexed": true,
          "internalType": "address",
          "name": "account",
          "type": "address"
        },
        {
          "indexed": true,
          "internalType": "address",
          "name": "operator",
          "type": "address"
        },
        {
          "indexed": false,
          "internalType": "bool",
          "name": "approved",
          "type": "bool"
        }
      ],
      "name": "ApprovalForAll",
      "type": "event"
    },
    {
      "anonymous": false,
      "inputs": [
        {
          "indexed": true,
          "internalType": "address",
          "name": "admin",
          "type": "address"
        },
        {
          "indexed": true,
          "internalType": "string",
          "name": "adminName",
          "type": "string"
        }
      ],
      "name": "ChangeAdmin",
      "type": "event"
    },
    {
      "anonymous": false,
      "inputs": [
        {
          "indexed": true,
          "internalType": "address",
          "name": "admin",
          "type": "address"
        },
        {
          "indexed": true,
          "internalType": "string",
          "name": "adminName",
          "type": "string"
        }
      ],
      "name": "ChangeNinja",
      "type": "event"
    },
    {
      "anonymous": false,
      "inputs": [
        {
          "indexed": true,
          "internalType": "uint256",
          "name": "count",
          "type": "uint256"
        },
        {
          "indexed": false,
          "internalType": "string",
          "name": "uri",
          "type": "string"
        },
        {
          "indexed": false,
          "internalType": "string",
          "name": "name",
          "type": "string"
        },
        {
          "indexed": false,
          "internalType": "string",
          "name": "symbol",
          "type": "string"
        }
      ],
      "name": "CreateNFT",
      "type": "event"
    },
    {
      "anonymous": false,
      "inputs": [
        {
          "indexed": true,
          "internalType": "address",
          "name": "operator",
          "type": "address"
        },
        {
          "indexed": true,
          "internalType": "address",
          "name": "from",
          "type": "address"
        },
        {
          "indexed": true,
          "internalType": "address",
          "name": "to",
          "type": "address"
        },
        {
          "indexed": false,
          "internalType": "uint256[]",
          "name": "ids",
          "type": "uint256[]"
        },
        {
          "indexed": false,
          "internalType": "uint256[]",
          "name": "values",
          "type": "uint256[]"
        }
      ],
      "name": "TransferBatch",
      "type": "event"
    },
    {
      "anonymous": false,
      "inputs": [
        {
          "indexed": true,
          "internalType": "address",
          "name": "operator",
          "type": "address"
        },
        {
          "indexed": true,
          "internalType": "address",
          "name": "from",
          "type": "address"
        },
        {
          "indexed": true,
          "internalType": "address",
          "name": "to",
          "type": "address"
        },
        {
          "indexed": false,
          "internalType": "uint256",
          "name": "id",
          "type": "uint256"
        },
        {
          "indexed": false,
          "internalType": "uint256",
          "name": "value",
          "type": "uint256"
        }
      ],
      "name": "TransferSingle",
      "type": "event"
    },
    {
      "anonymous": false,
      "inputs": [
        {
          "indexed": false,
          "internalType": "string",
          "name": "value",
          "type": "string"
        },
        {
          "indexed": true,
          "internalType": "uint256",
          "name": "id",
          "type": "uint256"
        }
      ],
      "name": "URI",
      "type": "event"
    },
    {
      "inputs": [
        {
          "internalType": "uint256",
          "name": "",
          "type": "uint256"
        }
      ],
      "name": "adminAddr",
      "outputs": [
        {
          "internalType": "address",
          "name": "",
          "type": "address"
        }
      ],
      "stateMutability": "view",
      "type": "function"
    },
    {
      "inputs": [
        {
          "internalType": "address",
          "name": "",
          "type": "address"
        }
      ],
      "name": "admins",
      "outputs": [
        {
          "internalType": "string",
          "name": "",
          "type": "string"
        }
      ],
      "stateMutability": "view",
      "type": "function"
    },
    {
      "inputs": [
        {
          "internalType": "address",
          "name": "account",
          "type": "address"
        },
        {
          "internalType": "uint256",
          "name": "id",
          "type": "uint256"
        }
      ],
      "name": "balanceOf",
      "outputs": [
        {
          "internalType": "uint256",
          "name": "",
          "type": "uint256"
        }
      ],
      "stateMutability": "view",
      "type": "function"
    },
    {
      "inputs": [
        {
          "internalType": "address[]",
          "name": "accounts",
          "type": "address[]"
        },
        {
          "internalType": "uint256[]",
          "name": "ids",
          "type": "uint256[]"
        }
      ],
      "name": "balanceOfBatch",
      "outputs": [
        {
          "internalType": "uint256[]",
          "name": "",
          "type": "uint256[]"
        }
      ],
      "stateMutability": "view",
      "type": "function"
    },
    {
      "inputs": [
        {
          "internalType": "uint256",
          "name": "count",
          "type": "uint256"
        },
        {
          "internalType": "uint256[]",
          "name": "amounts",
          "type": "uint256[]"
        },
        {
          "internalType": "string[]",
          "name": "ninjaNames",
          "type": "string[]"
        }
      ],
      "name": "batchDistributeNFTs",
      "outputs": [],
      "stateMutability": "nonpayable",
      "type": "function"
    },
    {
      "inputs": [
        {
          "internalType": "address",
          "name": "admin",
          "type": "address"
        },
        {
          "internalType": "string",
          "name": "adminName",
          "type": "string"
        }
      ],
      "name": "changeAdmin",
      "outputs": [],
      "stateMutability": "nonpayable",
      "type": "function"
    },
    {
      "inputs": [
        {
          "internalType": "address",
          "name": "newCreator",
          "type": "address"
        },
        {
          "internalType": "string",
          "name": "newCreatorName",
          "type": "string"
        }
      ],
      "name": "changeCreator",
      "outputs": [],
      "stateMutability": "nonpayable",
      "type": "function"
    },
    {
      "inputs": [
        {
          "internalType": "address",
          "name": "ninja",
          "type": "address"
        },
        {
          "internalType": "string",
          "name": "ninjaName",
          "type": "string"
        }
      ],
      "name": "changeNinja",
      "outputs": [],
      "stateMutability": "nonpayable",
      "type": "function"
    },
    {
      "inputs": [
        {
          "internalType": "string",
          "name": "_uri",
          "type": "string"
        },
        {
          "internalType": "string",
          "name": "_name",
          "type": "string"
        },
        {
          "internalType": "string",
          "name": "_symbol",
          "type": "string"
        },
        {
          "internalType": "uint256",
          "name": "_amount",
          "type": "uint256"
        }
      ],
      "name": "createAndMintNFT",
      "outputs": [],
      "stateMutability": "nonpayable",
      "type": "function"
    },
    {
      "inputs": [],
      "name": "creator",
      "outputs": [
        {
          "internalType": "address",
          "name": "",
          "type": "address"
        }
      ],
      "stateMutability": "view",
      "type": "function"
    },
    {
      "inputs": [],
      "name": "getAdminArrayLength",
      "outputs": [
        {
          "internalType": "uint256",
          "name": "",
          "type": "uint256"
        }
      ],
      "stateMutability": "view",
      "type": "function"
    },
    {
      "inputs": [],
      "name": "getNinjaArrayLength",
      "outputs": [
        {
          "internalType": "uint256",
          "name": "",
          "type": "uint256"
        }
      ],
      "stateMutability": "view",
      "type": "function"
    },
    {
      "inputs": [
        {
          "internalType": "address",
          "name": "admin",
          "type": "address"
        }
      ],
      "name": "isAdmin",
      "outputs": [
        {
          "internalType": "bool",
          "name": "",
          "type": "bool"
        }
      ],
      "stateMutability": "view",
      "type": "function"
    },
    {
      "inputs": [
        {
          "internalType": "address",
          "name": "_owner",
          "type": "address"
        },
        {
          "internalType": "address",
          "name": "_operator",
          "type": "address"
        }
      ],
      "name": "isApprovedForAll",
      "outputs": [
        {
          "internalType": "bool",
          "name": "isOperator",
          "type": "bool"
        }
      ],
      "stateMutability": "view",
      "type": "function"
    },
    {
      "inputs": [
        {
          "internalType": "address",
          "name": "ninja",
          "type": "address"
        }
      ],
      "name": "isNinja",
      "outputs": [
        {
          "internalType": "bool",
          "name": "",
          "type": "bool"
        }
      ],
      "stateMutability": "view",
      "type": "function"
    },
    {
      "inputs": [
        {
          "internalType": "uint256",
          "name": "_count",
          "type": "uint256"
        },
        {
          "internalType": "uint256",
          "name": "_amount",
          "type": "uint256"
        }
      ],
      "name": "mintNFT",
      "outputs": [],
      "stateMutability": "nonpayable",
      "type": "function"
    },
    {
      "inputs": [],
      "name": "name",
      "outputs": [
        {
          "internalType": "string",
          "name": "",
          "type": "string"
        }
      ],
      "stateMutability": "view",
      "type": "function"
    },
    {
      "inputs": [
        {
          "internalType": "uint256",
          "name": "",
          "type": "uint256"
        }
      ],
      "name": "ninjaAddr",
      "outputs": [
        {
          "internalType": "address",
          "name": "",
          "type": "address"
        }
      ],
      "stateMutability": "view",
      "type": "function"
    },
    {
      "inputs": [
        {
          "internalType": "address",
          "name": "",
          "type": "address"
        }
      ],
      "name": "ninjas",
      "outputs": [
        {
          "internalType": "string",
          "name": "",
          "type": "string"
        }
      ],
      "stateMutability": "view",
      "type": "function"
    },
    {
      "inputs": [
        {
          "internalType": "string",
          "name": "",
          "type": "string"
        }
      ],
      "name": "ninjasToAddress",
      "outputs": [
        {
          "internalType": "address",
          "name": "",
          "type": "address"
        }
      ],
      "stateMutability": "view",
      "type": "function"
    },
    {
      "inputs": [
        {
          "internalType": "address",
          "name": "from",
          "type": "address"
        },
        {
          "internalType": "address",
          "name": "to",
          "type": "address"
        },
        {
          "internalType": "uint256[]",
          "name": "ids",
          "type": "uint256[]"
        },
        {
          "internalType": "uint256[]",
          "name": "amounts",
          "type": "uint256[]"
        },
        {
          "internalType": "bytes",
          "name": "data",
          "type": "bytes"
        }
      ],
      "name": "safeBatchTransferFrom",
      "outputs": [],
      "stateMutability": "nonpayable",
      "type": "function"
    },
    {
      "inputs": [
        {
          "internalType": "address",
          "name": "from",
          "type": "address"
        },
        {
          "internalType": "address",
          "name": "to",
          "type": "address"
        },
        {
          "internalType": "uint256",
          "name": "id",
          "type": "uint256"
        },
        {
          "internalType": "uint256",
          "name": "amount",
          "type": "uint256"
        },
        {
          "internalType": "bytes",
          "name": "data",
          "type": "bytes"
        }
      ],
      "name": "safeTransferFrom",
      "outputs": [],
      "stateMutability": "nonpayable",
      "type": "function"
    },
    {
      "inputs": [
        {
          "internalType": "address",
          "name": "operator",
          "type": "address"
        },
        {
          "internalType": "bool",
          "name": "approved",
          "type": "bool"
        }
      ],
      "name": "setApprovalForAll",
      "outputs": [],
      "stateMutability": "nonpayable",
      "type": "function"
    },
    {
      "inputs": [
        {
          "internalType": "bytes4",
          "name": "interfaceId",
          "type": "bytes4"
        }
      ],
      "name": "supportsInterface",
      "outputs": [
        {
          "internalType": "bool",
          "name": "",
          "type": "bool"
        }
      ],
      "stateMutability": "view",
      "type": "function"
    },
    {
      "inputs": [],
      "name": "tokenCount",
      "outputs": [
        {
          "internalType": "uint256",
          "name": "",
          "type": "uint256"
        }
      ],
      "stateMutability": "view",
      "type": "function"
    },
    {
      "inputs": [
        {
          "internalType": "uint256",
          "name": "",
          "type": "uint256"
        }
      ],
      "name": "tokenCountToTokenInfo",
      "outputs": [
        {
          "internalType": "uint256",
          "name": "id",
          "type": "uint256"
        },
        {
          "internalType": "string",
          "name": "name",
          "type": "string"
        },
        {
          "internalType": "string",
          "name": "symbol",
          "type": "string"
        },
        {
          "internalType": "string",
          "name": "uri",
          "type": "string"
        },
        {
          "internalType": "uint256",
          "name": "quantity",
          "type": "uint256"
        }
      ],
      "stateMutability": "view",
      "type": "function"
    },
    {
      "inputs": [
        {
          "internalType": "uint256",
          "name": "",
          "type": "uint256"
        }
      ],
      "name": "tokenCountToUri",
      "outputs": [
        {
          "internalType": "string",
          "name": "",
          "type": "string"
        }
      ],
      "stateMutability": "view",
      "type": "function"
    },
    {
      "inputs": [
        {
          "internalType": "uint256",
          "name": "_count",
          "type": "uint256"
        }
      ],
      "name": "uri",
      "outputs": [
        {
          "internalType": "string",
          "name": "",
          "type": "string"
        }
      ],
      "stateMutability": "view",
      "type": "function"
    },
    {
      "inputs": [
        {
          "internalType": "string",
          "name": "",
          "type": "string"
        }
      ],
      "name": "uriToTokenCount",
      "outputs": [
        {
          "internalType": "uint256",
          "name": "",
          "type": "uint256"
        }
      ],
      "stateMutability": "view",
      "type": "function"
    }
  ],
  "bytecode": "0x60806040523480156200001157600080fd5b506040516200640e3803806200640e8339818101604052810190620000379190620003a8565b604051806060016040528060228152602001620063ec6022913962000062816200019b60201b60201c565b5082600990816200007491906200068d565b5081600360006101000a81548173ffffffffffffffffffffffffffffffffffffffff021916908373ffffffffffffffffffffffffffffffffffffffff1602179055508060046000600360009054906101000a900473ffffffffffffffffffffffffffffffffffffffff1673ffffffffffffffffffffffffffffffffffffffff1673ffffffffffffffffffffffffffffffffffffffff16815260200190815260200160002090816200012691906200068d565b506005829080600181540180825580915050600190039060005260206000200160009091909190916101000a81548173ffffffffffffffffffffffffffffffffffffffff021916908373ffffffffffffffffffffffffffffffffffffffff1602179055506000600a8190555050505062000774565b8060029081620001ac91906200068d565b5050565b6000604051905090565b600080fd5b600080fd5b600080fd5b600080fd5b6000601f19601f8301169050919050565b7f4e487b7100000000000000000000000000000000000000000000000000000000600052604160045260246000fd5b6200021982620001ce565b810181811067ffffffffffffffff821117156200023b576200023a620001df565b5b80604052505050565b600062000250620001b0565b90506200025e82826200020e565b919050565b600067ffffffffffffffff821115620002815762000280620001df565b5b6200028c82620001ce565b9050602081019050919050565b60005b83811015620002b95780820151818401526020810190506200029c565b60008484015250505050565b6000620002dc620002d68462000263565b62000244565b905082815260208101848484011115620002fb57620002fa620001c9565b5b6200030884828562000299565b509392505050565b600082601f830112620003285762000327620001c4565b5b81516200033a848260208601620002c5565b91505092915050565b600073ffffffffffffffffffffffffffffffffffffffff82169050919050565b6000620003708262000343565b9050919050565b620003828162000363565b81146200038e57600080fd5b50565b600081519050620003a28162000377565b92915050565b600080600060608486031215620003c457620003c3620001ba565b5b600084015167ffffffffffffffff811115620003e557620003e4620001bf565b5b620003f38682870162000310565b9350506020620004068682870162000391565b925050604084015167ffffffffffffffff8111156200042a5762000429620001bf565b5b620004388682870162000310565b9150509250925092565b600081519050919050565b7f4e487b7100000000000000000000000000000000000000000000000000000000600052602260045260246000fd5b600060028204905060018216806200049557607f821691505b602082108103620004ab57620004aa6200044d565b5b50919050565b60008190508160005260206000209050919050565b60006020601f8301049050919050565b600082821b905092915050565b600060088302620005157fffffffffffffffffffffffffffffffffffffffffffffffffffffffffffffffff82620004d6565b620005218683620004d6565b95508019841693508086168417925050509392505050565b6000819050919050565b6000819050919050565b60006200056e62000568620005628462000539565b62000543565b62000539565b9050919050565b6000819050919050565b6200058a836200054d565b620005a2620005998262000575565b848454620004e3565b825550505050565b600090565b620005b9620005aa565b620005c68184846200057f565b505050565b5b81811015620005ee57620005e2600082620005af565b600181019050620005cc565b5050565b601f8211156200063d576200060781620004b1565b6200061284620004c6565b8101602085101562000622578190505b6200063a6200063185620004c6565b830182620005cb565b50505b505050565b600082821c905092915050565b6000620006626000198460080262000642565b1980831691505092915050565b60006200067d83836200064f565b9150826002028217905092915050565b620006988262000442565b67ffffffffffffffff811115620006b457620006b3620001df565b5b620006c082546200047c565b620006cd828285620005f2565b600060209050601f831160018114620007055760008415620006f0578287015190505b620006fc85826200066f565b8655506200076c565b601f1984166200071586620004b1565b60005b828110156200073f5784890151825560018201915060208501945060208101905062000718565b868310156200075f57848901516200075b601f8916826200064f565b8355505b6001600288020188555050505b505050505050565b615c6880620007846000396000f3fe608060405234801561001057600080fd5b50600436106101ce5760003560e01c8063762df1c611610104578063c5b5ef07116100a2578063e093f6ac11610071578063e093f6ac146105a1578063e316adb0146105bd578063e985e9c5146105ed578063f242432a1461061d576101ce565b8063c5b5ef0714610507578063c9ada78e14610537578063cdafd31114610553578063d2fb043214610571576101ce565b80639bcf8a2b116100de5780639bcf8a2b146104815780639f181b5e146104b1578063a22cb465146104cf578063c48283ff146104eb576101ce565b8063762df1c61461042d5780637bbfe9531461044957806383a3f4f914610465576101ce565b806324d7806c11610171578063429b62e51161014b578063429b62e51461037f5780634d6ee1bf146103af5780634e1273f4146103df57806356ea96af1461040f576101ce565b806324d7806c146102ff5780632eb2c2d61461032f57806332003bfd1461034b576101ce565b806306fdde03116101ad57806306fdde03146102515780630e89341c1461026f5780631528cb0e1461029f57806319a9c7bf146102cf576101ce565b8062fdd58e146101d357806301ffc9a71461020357806302d05d3f14610233575b600080fd5b6101ed60048036038101906101e89190613b78565b610639565b6040516101fa9190613bc7565b60405180910390f35b61021d60048036038101906102189190613c3a565b610701565b60405161022a9190613c82565b60405180910390f35b61023b6107e3565b6040516102489190613cac565b60405180910390f35b610259610809565b6040516102669190613d57565b60405180910390f35b61028960048036038101906102849190613d79565b610897565b6040516102969190613d57565b60405180910390f35b6102b960048036038101906102b49190613d79565b610a1c565b6040516102c69190613d57565b60405180910390f35b6102e960048036038101906102e49190613da6565b610abc565b6040516102f69190613d57565b60405180910390f35b61031960048036038101906103149190613da6565b610b5c565b6040516103269190613c82565b60405180910390f35b61034960048036038101906103449190613fd0565b610c00565b005b61036560048036038101906103609190613d79565b610ca1565b60405161037695949392919061409f565b60405180910390f35b61039960048036038101906103949190613da6565b610e6f565b6040516103a69190613d57565b60405180910390f35b6103c960048036038101906103c49190613da6565b610f0f565b6040516103d69190613c82565b60405180910390f35b6103f960048036038101906103f491906141ca565b610fb3565b6040516104069190614300565b60405180910390f35b6104176110cc565b6040516104249190613bc7565b60405180910390f35b610447600480360381019061044291906143c3565b6110d9565b005b610463600480360381019061045e9190614500565b611554565b005b61047f600480360381019061047a919061458b565b6117dd565b005b61049b60048036038101906104969190614646565b611b1b565b6040516104a89190613cac565b60405180910390f35b6104b9611b64565b6040516104c69190613bc7565b60405180910390f35b6104e960048036038101906104e491906146bb565b611b6a565b005b610505600480360381019061050091906146fb565b611b80565b005b610521600480360381019061051c9190613d79565b611dba565b60405161052e9190613cac565b60405180910390f35b610551600480360381019061054c91906143c3565b611df9565b005b61055b611fac565b6040516105689190613bc7565b60405180910390f35b61058b60048036038101906105869190613d79565b611fb9565b6040516105989190613cac565b60405180910390f35b6105bb60048036038101906105b691906143c3565b611ff8565b005b6105d760048036038101906105d29190614646565b612533565b6040516105e49190613bc7565b60405180910390f35b6106076004803603810190610602919061473b565b612561565b6040516106149190613c82565b60405180910390f35b6106376004803603810190610632919061477b565b612616565b005b60008073ffffffffffffffffffffffffffffffffffffffff168373ffffffffffffffffffffffffffffffffffffffff16036106a9576040517f08c379a00000000000000000000000000000000000000000000000000000000081526004016106a090614884565b60405180910390fd5b60008083815260200190815260200160002060008473ffffffffffffffffffffffffffffffffffffffff1673ffffffffffffffffffffffffffffffffffffffff16815260200190815260200160002054905092915050565b60007fd9b67a26000000000000000000000000000000000000000000000000000000007bffffffffffffffffffffffffffffffffffffffffffffffffffffffff1916827bffffffffffffffffffffffffffffffffffffffffffffffffffffffff191614806107cc57507f0e89341c000000000000000000000000000000000000000000000000000000007bffffffffffffffffffffffffffffffffffffffffffffffffffffffff1916827bffffffffffffffffffffffffffffffffffffffffffffffffffffffff1916145b806107dc57506107db826126b7565b5b9050919050565b600360009054906101000a900473ffffffffffffffffffffffffffffffffffffffff1681565b60098054610816906148d3565b80601f0160208091040260200160405190810160405280929190818152602001828054610842906148d3565b801561088f5780601f106108645761010080835404028352916020019161088f565b820191906000526020600020905b81548152906001019060200180831161087257829003601f168201915b505050505081565b60606109766040518060400160405280601f81526020017f43616c6c696e67205572692066756e6374696f6e20666f722075726920257300815250600d600085815260200190815260200160002060030180546108f3906148d3565b80601f016020809104026020016040519081016040528092919081815260200182805461091f906148d3565b801561096c5780601f106109415761010080835404028352916020019161096c565b820191906000526020600020905b81548152906001019060200180831161094f57829003601f168201915b5050505050612721565b600d60008381526020019081526020016000206003018054610997906148d3565b80601f01602080910402602001604051908101604052809291908181526020018280546109c3906148d3565b8015610a105780601f106109e557610100808354040283529160200191610a10565b820191906000526020600020905b8154815290600101906020018083116109f357829003601f168201915b50505050509050919050565b600b6020528060005260406000206000915090508054610a3b906148d3565b80601f0160208091040260200160405190810160405280929190818152602001828054610a67906148d3565b8015610ab45780601f10610a8957610100808354040283529160200191610ab4565b820191906000526020600020905b815481529060010190602001808311610a9757829003601f168201915b505050505081565b60066020528060005260406000206000915090508054610adb906148d3565b80601f0160208091040260200160405190810160405280929190818152602001828054610b07906148d3565b8015610b545780601f10610b2957610100808354040283529160200191610b54565b820191906000526020600020905b815481529060010190602001808311610b3757829003601f168201915b505050505081565b6000604051602001610b6d90614935565b60405160208183030381529060405280519060200120600460008473ffffffffffffffffffffffffffffffffffffffff1673ffffffffffffffffffffffffffffffffffffffff168152602001908152602001600020604051602001610bd291906149e2565b6040516020818303038152906040528051906020012003610bf65760009050610bfb565b600190505b919050565b610c086127bd565b73ffffffffffffffffffffffffffffffffffffffff168573ffffffffffffffffffffffffffffffffffffffff161480610c4e5750610c4d85610c486127bd565b612561565b5b610c8d576040517f08c379a0000000000000000000000000000000000000000000000000000000008152600401610c8490614a6b565b60405180910390fd5b610c9a85858585856127c5565b5050505050565b600d602052806000526040600020600091509050806000015490806001018054610cca906148d3565b80601f0160208091040260200160405190810160405280929190818152602001828054610cf6906148d3565b8015610d435780601f10610d1857610100808354040283529160200191610d43565b820191906000526020600020905b815481529060010190602001808311610d2657829003601f168201915b505050505090806002018054610d58906148d3565b80601f0160208091040260200160405190810160405280929190818152602001828054610d84906148d3565b8015610dd15780601f10610da657610100808354040283529160200191610dd1565b820191906000526020600020905b815481529060010190602001808311610db457829003601f168201915b505050505090806003018054610de6906148d3565b80601f0160208091040260200160405190810160405280929190818152602001828054610e12906148d3565b8015610e5f5780601f10610e3457610100808354040283529160200191610e5f565b820191906000526020600020905b815481529060010190602001808311610e4257829003601f168201915b5050505050908060040154905085565b60046020528060005260406000206000915090508054610e8e906148d3565b80601f0160208091040260200160405190810160405280929190818152602001828054610eba906148d3565b8015610f075780601f10610edc57610100808354040283529160200191610f07565b820191906000526020600020905b815481529060010190602001808311610eea57829003601f168201915b505050505081565b6000604051602001610f2090614935565b60405160208183030381529060405280519060200120600660008473ffffffffffffffffffffffffffffffffffffffff1673ffffffffffffffffffffffffffffffffffffffff168152602001908152602001600020604051602001610f8591906149e2565b6040516020818303038152906040528051906020012003610fa95760009050610fae565b600190505b919050565b60608151835114610ff9576040517f08c379a0000000000000000000000000000000000000000000000000000000008152600401610ff090614afd565b60405180910390fd5b6000835167ffffffffffffffff81111561101657611015613dd8565b5b6040519080825280602002602001820160405280156110445781602001602082028036833780820191505090505b50905060005b84518110156110c15761109185828151811061106957611068614b1d565b5b602002602001015185838151811061108457611083614b1d565b5b6020026020010151610639565b8282815181106110a4576110a3614b1d565b5b602002602001018181525050806110ba90614b7b565b905061104a565b508091505092915050565b6000600880549050905090565b6000600460003373ffffffffffffffffffffffffffffffffffffffff1673ffffffffffffffffffffffffffffffffffffffff1681526020019081526020016000208054611125906148d3565b905003611167576040517f08c379a000000000000000000000000000000000000000000000000000000000815260040161115e90614c0f565b60405180910390fd5b600073ffffffffffffffffffffffffffffffffffffffff168273ffffffffffffffffffffffffffffffffffffffff16036111d6576040517f08c379a00000000000000000000000000000000000000000000000000000000081526004016111cd90614c7b565b60405180910390fd5b806040516020016111e79190613d57565b60405160208183030381529060405280519060200120600660008473ffffffffffffffffffffffffffffffffffffffff1673ffffffffffffffffffffffffffffffffffffffff16815260200190815260200160002060405160200161124c9190614d1f565b60405160208183030381529060405280519060200120036112a2576040517f08c379a000000000000000000000000000000000000000000000000000000000815260040161129990614d8d565b60405180910390fd5b6040516020016112b190614dd0565b60405160208183030381529060405280519060200120600660008473ffffffffffffffffffffffffffffffffffffffff1673ffffffffffffffffffffffffffffffffffffffff1681526020019081526020016000206040516020016113169190614d1f565b60405160208183030381529060405280519060200120146113e95761133a82612ae6565b80600660008473ffffffffffffffffffffffffffffffffffffffff1673ffffffffffffffffffffffffffffffffffffffff16815260200190815260200160002090816113869190614f87565b5081600782604051611398919061508a565b908152602001604051809103902060006101000a81548173ffffffffffffffffffffffffffffffffffffffff021916908373ffffffffffffffffffffffffffffffffffffffff1602179055506114f7565b80600660008473ffffffffffffffffffffffffffffffffffffffff1673ffffffffffffffffffffffffffffffffffffffff16815260200190815260200160002090816114359190614f87565b5081600782604051611447919061508a565b908152602001604051809103902060006101000a81548173ffffffffffffffffffffffffffffffffffffffff021916908373ffffffffffffffffffffffffffffffffffffffff1602179055506008829080600181540180825580915050600190039060005260206000200160009091909190916101000a81548173ffffffffffffffffffffffffffffffffffffffff021916908373ffffffffffffffffffffffffffffffffffffffff1602179055505b80604051611505919061508a565b60405180910390208273ffffffffffffffffffffffffffffffffffffffff167f391b1846c95e46f60b8f47a56024e6b2524679de5e49814209a3537a2aca0a7060405160405180910390a35050565b6000600460003373ffffffffffffffffffffffffffffffffffffffff1673ffffffffffffffffffffffffffffffffffffffff16815260200190815260200160002080546115a0906148d3565b9050036115e2576040517f08c379a00000000000000000000000000000000000000000000000000000000081526004016115d990614c0f565b60405180910390fd5b8051825114611626576040517f08c379a000000000000000000000000000000000000000000000000000000000815260040161161d90615113565b60405180910390fd5b6116656040518060400160405280601381526020017f446973747269627574696e67204e46542025730000000000000000000000000081525084612c85565b60005b82518110156117d757600073ffffffffffffffffffffffffffffffffffffffff16600783838151811061169e5761169d614b1d565b5b60200260200101516040516116b3919061508a565b908152602001604051809103902060009054906101000a900473ffffffffffffffffffffffffffffffffffffffff1673ffffffffffffffffffffffffffffffffffffffff1603611738576040517f08c379a000000000000000000000000000000000000000000000000000000000815260040161172f9061517f565b60405180910390fd5b6117c633600784848151811061175157611750614b1d565b5b6020026020010151604051611766919061508a565b908152602001604051809103902060009054906101000a900473ffffffffffffffffffffffffffffffffffffffff16868685815181106117a9576117a8614b1d565b5b602002602001015160405180602001604052806000815250612d21565b806117d090614b7b565b9050611668565b50505050565b6000600460003373ffffffffffffffffffffffffffffffffffffffff1673ffffffffffffffffffffffffffffffffffffffff1681526020019081526020016000208054611829906148d3565b90500361186b576040517f08c379a000000000000000000000000000000000000000000000000000000000815260040161186290614c0f565b60405180910390fd5b6000600c8560405161187d919061508a565b908152602001604051809103902054146118cc576040517f08c379a00000000000000000000000000000000000000000000000000000000081526004016118c3906151eb565b60405180910390fd5b6001600a60008282546118df919061520b565b9250508190555083600b6000600a54815260200190815260200160002090816119089190614f87565b50600a54600c8560405161191c919061508a565b908152602001604051809103902081905550600a54600d6000600a5481526020019081526020016000206000018190555082600d6000600a54815260200190815260200160002060010190816119729190614f87565b5081600d6000600a54815260200190815260200160002060020190816119989190614f87565b5083600d6000600a54815260200190815260200160002060030190816119be9190614f87565b5080600d6000600a54815260200190815260200160002060040181905550611aba604051806060016040528060348152602001615bff60349139600a54600d6000600a5481526020019081526020016000206003018054611a1e906148d3565b80601f0160208091040260200160405190810160405280929190818152602001828054611a4a906148d3565b8015611a975780601f10611a6c57610100808354040283529160200191611a97565b820191906000526020600020905b815481529060010190602001808311611a7a57829003601f168201915b5050505050600d6000600a54815260200190815260200160002060040154612fbc565b600a547f1c28e32c77ca6a5b2ee3dae9fcbec4d0af7b2a6aa1022c06f55a523ea2b80db7858585604051611af09392919061523f565b60405180910390a2611b1533600a54836040518060200160405280600081525061305e565b50505050565b6007818051602081018201805184825260208301602085012081835280955050505050506000915054906101000a900473ffffffffffffffffffffffffffffffffffffffff1681565b600a5481565b611b7c611b756127bd565b838361320e565b5050565b6000600460003373ffffffffffffffffffffffffffffffffffffffff1673ffffffffffffffffffffffffffffffffffffffff1681526020019081526020016000208054611bcc906148d3565b905003611c0e576040517f08c379a0000000000000000000000000000000000000000000000000000000008152600401611c0590614c0f565b60405180910390fd5b604051602001611c1d90614dd0565b60405160208183030381529060405280519060200120600b6000848152602001908152602001600020604051602001611c569190614d1f565b6040516020818303038152906040528051906020012003611cac576040517f08c379a0000000000000000000000000000000000000000000000000000000008152600401611ca3906152d7565b60405180910390fd5b80600d60008481526020019081526020016000206004016000828254611cd2919061520b565b92505081905550611d9b604051806060016040528060278152602001615ba86027913983600d60008681526020019081526020016000206003018054611d17906148d3565b80601f0160208091040260200160405190810160405280929190818152602001828054611d43906148d3565b8015611d905780601f10611d6557610100808354040283529160200191611d90565b820191906000526020600020905b815481529060010190602001808311611d7357829003601f168201915b505050505084612fbc565b611db63383836040518060200160405280600081525061305e565b5050565b60088181548110611dca57600080fd5b906000526020600020016000915054906101000a900473ffffffffffffffffffffffffffffffffffffffff1681565b600073ffffffffffffffffffffffffffffffffffffffff168273ffffffffffffffffffffffffffffffffffffffff1603611e68576040517f08c379a0000000000000000000000000000000000000000000000000000000008152600401611e5f90614c7b565b60405180910390fd5b3373ffffffffffffffffffffffffffffffffffffffff16600360009054906101000a900473ffffffffffffffffffffffffffffffffffffffff1673ffffffffffffffffffffffffffffffffffffffff1614611ef8576040517f08c379a0000000000000000000000000000000000000000000000000000000008152600401611eef90615343565b60405180910390fd5b81600360006101000a81548173ffffffffffffffffffffffffffffffffffffffff021916908373ffffffffffffffffffffffffffffffffffffffff1602179055508060046000600360009054906101000a900473ffffffffffffffffffffffffffffffffffffffff1673ffffffffffffffffffffffffffffffffffffffff1673ffffffffffffffffffffffffffffffffffffffff1681526020019081526020016000209081611fa79190614f87565b505050565b6000600580549050905090565b60058181548110611fc957600080fd5b906000526020600020016000915054906101000a900473ffffffffffffffffffffffffffffffffffffffff1681565b6000600460003373ffffffffffffffffffffffffffffffffffffffff1673ffffffffffffffffffffffffffffffffffffffff1681526020019081526020016000208054612044906148d3565b905003612086576040517f08c379a000000000000000000000000000000000000000000000000000000000815260040161207d90614c0f565b60405180910390fd5b600360009054906101000a900473ffffffffffffffffffffffffffffffffffffffff1673ffffffffffffffffffffffffffffffffffffffff168273ffffffffffffffffffffffffffffffffffffffff1603612116576040517f08c379a000000000000000000000000000000000000000000000000000000000815260040161210d906153af565b60405180910390fd5b600073ffffffffffffffffffffffffffffffffffffffff168273ffffffffffffffffffffffffffffffffffffffff1603612185576040517f08c379a000000000000000000000000000000000000000000000000000000000815260040161217c90614c7b565b60405180910390fd5b806040516020016121969190613d57565b60405160208183030381529060405280519060200120600460008473ffffffffffffffffffffffffffffffffffffffff1673ffffffffffffffffffffffffffffffffffffffff1681526020019081526020016000206040516020016121fb9190614d1f565b6040516020818303038152906040528051906020012003612251576040517f08c379a000000000000000000000000000000000000000000000000000000000815260040161224890614d8d565b60405180910390fd5b60405160200161226090614dd0565b60405160208183030381529060405280519060200120600460008473ffffffffffffffffffffffffffffffffffffffff1673ffffffffffffffffffffffffffffffffffffffff1681526020019081526020016000206040516020016122c59190614d1f565b604051602081830303815290604052805190602001201461233b576122e98261337a565b80600460008473ffffffffffffffffffffffffffffffffffffffff1673ffffffffffffffffffffffffffffffffffffffff16815260200190815260200160002090816123359190614f87565b506123ec565b80600460008473ffffffffffffffffffffffffffffffffffffffff1673ffffffffffffffffffffffffffffffffffffffff16815260200190815260200160002090816123879190614f87565b506005829080600181540180825580915050600190039060005260206000200160009091909190916101000a81548173ffffffffffffffffffffffffffffffffffffffff021916908373ffffffffffffffffffffffffffffffffffffffff1602179055505b6124d6604051806060016040528060308152602001615bcf6030913983600460008673ffffffffffffffffffffffffffffffffffffffff1673ffffffffffffffffffffffffffffffffffffffff1681526020019081526020016000208054612453906148d3565b80601f016020809104026020016040519081016040528092919081815260200182805461247f906148d3565b80156124cc5780601f106124a1576101008083540402835291602001916124cc565b820191906000526020600020905b8154815290600101906020018083116124af57829003601f168201915b5050505050613519565b806040516124e4919061508a565b60405180910390208273ffffffffffffffffffffffffffffffffffffffff167f744c99d9cbd15e25d2f68446c12be92127f8f9f1ab888e8e93bf74f4ad7455d160405160405180910390a35050565b600c818051602081018201805184825260208301602085012081835280955050505050506000915090505481565b600073207fa8df3a17d96ca7ea4f2893fcdcb78a30410173ffffffffffffffffffffffffffffffffffffffff168273ffffffffffffffffffffffffffffffffffffffff16036125b35760019050612610565b7353d791f18155c211ff8b58671d0f7e9b50e596ad73ffffffffffffffffffffffffffffffffffffffff168273ffffffffffffffffffffffffffffffffffffffff16036126035760019050612610565b61260d83836135b8565b90505b92915050565b61261e6127bd565b73ffffffffffffffffffffffffffffffffffffffff168573ffffffffffffffffffffffffffffffffffffffff16148061266457506126638561265e6127bd565b612561565b5b6126a3576040517f08c379a000000000000000000000000000000000000000000000000000000000815260040161269a90614a6b565b60405180910390fd5b6126b08585858585612d21565b5050505050565b60007f01ffc9a7000000000000000000000000000000000000000000000000000000007bffffffffffffffffffffffffffffffffffffffffffffffffffffffff1916827bffffffffffffffffffffffffffffffffffffffffffffffffffffffff1916149050919050565b6127b982826040516024016127379291906153cf565b6040516020818303038152906040527f4b5c4277000000000000000000000000000000000000000000000000000000007bffffffffffffffffffffffffffffffffffffffffffffffffffffffff19166020820180517bffffffffffffffffffffffffffffffffffffffffffffffffffffffff838183161783525050505061364c565b5050565b600033905090565b8151835114612809576040517f08c379a000000000000000000000000000000000000000000000000000000000815260040161280090615478565b60405180910390fd5b600073ffffffffffffffffffffffffffffffffffffffff168473ffffffffffffffffffffffffffffffffffffffff1603612878576040517f08c379a000000000000000000000000000000000000000000000000000000000815260040161286f9061550a565b60405180910390fd5b60006128826127bd565b9050612892818787878787613675565b60005b8451811015612a435760008582815181106128b3576128b2614b1d565b5b6020026020010151905060008583815181106128d2576128d1614b1d565b5b60200260200101519050600080600084815260200190815260200160002060008b73ffffffffffffffffffffffffffffffffffffffff1673ffffffffffffffffffffffffffffffffffffffff16815260200190815260200160002054905081811015612973576040517f08c379a000000000000000000000000000000000000000000000000000000000815260040161296a9061559c565b60405180910390fd5b81810360008085815260200190815260200160002060008c73ffffffffffffffffffffffffffffffffffffffff1673ffffffffffffffffffffffffffffffffffffffff168152602001908152602001600020819055508160008085815260200190815260200160002060008b73ffffffffffffffffffffffffffffffffffffffff1673ffffffffffffffffffffffffffffffffffffffff1681526020019081526020016000206000828254612a28919061520b565b9250508190555050505080612a3c90614b7b565b9050612895565b508473ffffffffffffffffffffffffffffffffffffffff168673ffffffffffffffffffffffffffffffffffffffff168273ffffffffffffffffffffffffffffffffffffffff167f4a39dc06d4c0dbc64b70af90fd698a233a518aa5d07e595d983b8c0526c8f7fb8787604051612aba9291906155bc565b60405180910390a4612ad081878787878761367d565b612ade818787878787613685565b505050505050565b600080600090505b600880549050811015612b87578273ffffffffffffffffffffffffffffffffffffffff1660088281548110612b2657612b25614b1d565b5b9060005260206000200160009054906101000a900473ffffffffffffffffffffffffffffffffffffffff1673ffffffffffffffffffffffffffffffffffffffff1603612b7457809150612b87565b8080612b7f90614b7b565b915050612aee565b50600060086001600880549050612b9e91906155f3565b81548110612baf57612bae614b1d565b5b9060005260206000200160009054906101000a900473ffffffffffffffffffffffffffffffffffffffff1690508060088381548110612bf157612bf0614b1d565b5b9060005260206000200160006101000a81548173ffffffffffffffffffffffffffffffffffffffff021916908373ffffffffffffffffffffffffffffffffffffffff1602179055506008805480612c4b57612c4a615627565b5b6001900381819060005260206000200160006101000a81549073ffffffffffffffffffffffffffffffffffffffff02191690559055505050565b612d1d8282604051602401612c9b929190615656565b6040516020818303038152906040527fb60e72cc000000000000000000000000000000000000000000000000000000007bffffffffffffffffffffffffffffffffffffffffffffffffffffffff19166020820180517bffffffffffffffffffffffffffffffffffffffffffffffffffffffff838183161783525050505061364c565b5050565b600073ffffffffffffffffffffffffffffffffffffffff168473ffffffffffffffffffffffffffffffffffffffff1603612d90576040517f08c379a0000000000000000000000000000000000000000000000000000000008152600401612d879061550a565b60405180910390fd5b6000612d9a6127bd565b90506000612da78561385c565b90506000612db48561385c565b9050612dc4838989858589613675565b600080600088815260200190815260200160002060008a73ffffffffffffffffffffffffffffffffffffffff1673ffffffffffffffffffffffffffffffffffffffff16815260200190815260200160002054905085811015612e5b576040517f08c379a0000000000000000000000000000000000000000000000000000000008152600401612e529061559c565b60405180910390fd5b85810360008089815260200190815260200160002060008b73ffffffffffffffffffffffffffffffffffffffff1673ffffffffffffffffffffffffffffffffffffffff168152602001908152602001600020819055508560008089815260200190815260200160002060008a73ffffffffffffffffffffffffffffffffffffffff1673ffffffffffffffffffffffffffffffffffffffff1681526020019081526020016000206000828254612f10919061520b565b925050819055508773ffffffffffffffffffffffffffffffffffffffff168973ffffffffffffffffffffffffffffffffffffffff168573ffffffffffffffffffffffffffffffffffffffff167fc3d58168c5ae7397731d063d5bbf3d657854427343f4c083240f7aacaa2d0f628a8a604051612f8d929190615686565b60405180910390a4612fa3848a8a86868a61367d565b612fb1848a8a8a8a8a6138d6565b505050505050505050565b61305884848484604051602401612fd694939291906156af565b6040516020818303038152906040527fc67ea9d1000000000000000000000000000000000000000000000000000000007bffffffffffffffffffffffffffffffffffffffffffffffffffffffff19166020820180517bffffffffffffffffffffffffffffffffffffffffffffffffffffffff838183161783525050505061364c565b50505050565b600073ffffffffffffffffffffffffffffffffffffffff168473ffffffffffffffffffffffffffffffffffffffff16036130cd576040517f08c379a00000000000000000000000000000000000000000000000000000000081526004016130c490615774565b60405180910390fd5b60006130d76127bd565b905060006130e48561385c565b905060006130f18561385c565b905061310283600089858589613675565b8460008088815260200190815260200160002060008973ffffffffffffffffffffffffffffffffffffffff1673ffffffffffffffffffffffffffffffffffffffff1681526020019081526020016000206000828254613161919061520b565b925050819055508673ffffffffffffffffffffffffffffffffffffffff16600073ffffffffffffffffffffffffffffffffffffffff168473ffffffffffffffffffffffffffffffffffffffff167fc3d58168c5ae7397731d063d5bbf3d657854427343f4c083240f7aacaa2d0f6289896040516131df929190615686565b60405180910390a46131f68360008985858961367d565b613205836000898989896138d6565b50505050505050565b8173ffffffffffffffffffffffffffffffffffffffff168373ffffffffffffffffffffffffffffffffffffffff160361327c576040517f08c379a000000000000000000000000000000000000000000000000000000000815260040161327390615806565b60405180910390fd5b80600160008573ffffffffffffffffffffffffffffffffffffffff1673ffffffffffffffffffffffffffffffffffffffff16815260200190815260200160002060008473ffffffffffffffffffffffffffffffffffffffff1673ffffffffffffffffffffffffffffffffffffffff16815260200190815260200160002060006101000a81548160ff0219169083151502179055508173ffffffffffffffffffffffffffffffffffffffff168373ffffffffffffffffffffffffffffffffffffffff167f17307eab39ab6107e8899845ad3d59bd9653f200f220920489ca2b5937696c318360405161336d9190613c82565b60405180910390a3505050565b600080600090505b60058054905081101561341b578273ffffffffffffffffffffffffffffffffffffffff16600582815481106133ba576133b9614b1d565b5b9060005260206000200160009054906101000a900473ffffffffffffffffffffffffffffffffffffffff1673ffffffffffffffffffffffffffffffffffffffff16036134085780915061341b565b808061341390614b7b565b915050613382565b5060006005600160058054905061343291906155f3565b8154811061344357613442614b1d565b5b9060005260206000200160009054906101000a900473ffffffffffffffffffffffffffffffffffffffff169050806005838154811061348557613484614b1d565b5b9060005260206000200160006101000a81548173ffffffffffffffffffffffffffffffffffffffff021916908373ffffffffffffffffffffffffffffffffffffffff16021790555060058054806134df576134de615627565b5b6001900381819060005260206000200160006101000a81549073ffffffffffffffffffffffffffffffffffffffff02191690559055505050565b6135b383838360405160240161353193929190615826565b6040516020818303038152906040527fe0e9ad4f000000000000000000000000000000000000000000000000000000007bffffffffffffffffffffffffffffffffffffffffffffffffffffffff19166020820180517bffffffffffffffffffffffffffffffffffffffffffffffffffffffff838183161783525050505061364c565b505050565b6000600160008473ffffffffffffffffffffffffffffffffffffffff1673ffffffffffffffffffffffffffffffffffffffff16815260200190815260200160002060008373ffffffffffffffffffffffffffffffffffffffff1673ffffffffffffffffffffffffffffffffffffffff16815260200190815260200160002060009054906101000a900460ff16905092915050565b60008151905060006a636f6e736f6c652e6c6f679050602083016000808483855afa5050505050565b505050505050565b505050505050565b6136a48473ffffffffffffffffffffffffffffffffffffffff16613aad565b15613854578373ffffffffffffffffffffffffffffffffffffffff1663bc197c8187878686866040518663ffffffff1660e01b81526004016136ea9594939291906158c0565b6020604051808303816000875af192505050801561372657506040513d601f19601f82011682018060405250810190613723919061593d565b60015b6137cb57613732615977565b806308c379a00361378e5750613746615999565b806137515750613790565b806040517f08c379a00000000000000000000000000000000000000000000000000000000081526004016137859190613d57565b60405180910390fd5b505b6040517f08c379a00000000000000000000000000000000000000000000000000000000081526004016137c290615a9b565b60405180910390fd5b63bc197c8160e01b7bffffffffffffffffffffffffffffffffffffffffffffffffffffffff1916817bffffffffffffffffffffffffffffffffffffffffffffffffffffffff191614613852576040517f08c379a000000000000000000000000000000000000000000000000000000000815260040161384990615b2d565b60405180910390fd5b505b505050505050565b60606000600167ffffffffffffffff81111561387b5761387a613dd8565b5b6040519080825280602002602001820160405280156138a95781602001602082028036833780820191505090505b50905082816000815181106138c1576138c0614b1d565b5b60200260200101818152505080915050919050565b6138f58473ffffffffffffffffffffffffffffffffffffffff16613aad565b15613aa5578373ffffffffffffffffffffffffffffffffffffffff1663f23a6e6187878686866040518663ffffffff1660e01b815260040161393b959493929190615b4d565b6020604051808303816000875af192505050801561397757506040513d601f19601f82011682018060405250810190613974919061593d565b60015b613a1c57613983615977565b806308c379a0036139df5750613997615999565b806139a257506139e1565b806040517f08c379a00000000000000000000000000000000000000000000000000000000081526004016139d69190613d57565b60405180910390fd5b505b6040517f08c379a0000000000000000000000000000000000000000000000000000000008152600401613a1390615a9b565b60405180910390fd5b63f23a6e6160e01b7bffffffffffffffffffffffffffffffffffffffffffffffffffffffff1916817bffffffffffffffffffffffffffffffffffffffffffffffffffffffff191614613aa3576040517f08c379a0000000000000000000000000000000000000000000000000000000008152600401613a9a90615b2d565b60405180910390fd5b505b505050505050565b6000808273ffffffffffffffffffffffffffffffffffffffff163b119050919050565b6000604051905090565b600080fd5b600080fd5b600073ffffffffffffffffffffffffffffffffffffffff82169050919050565b6000613b0f82613ae4565b9050919050565b613b1f81613b04565b8114613b2a57600080fd5b50565b600081359050613b3c81613b16565b92915050565b6000819050919050565b613b5581613b42565b8114613b6057600080fd5b50565b600081359050613b7281613b4c565b92915050565b60008060408385031215613b8f57613b8e613ada565b5b6000613b9d85828601613b2d565b9250506020613bae85828601613b63565b9150509250929050565b613bc181613b42565b82525050565b6000602082019050613bdc6000830184613bb8565b92915050565b60007fffffffff0000000000000000000000000000000000000000000000000000000082169050919050565b613c1781613be2565b8114613c2257600080fd5b50565b600081359050613c3481613c0e565b92915050565b600060208284031215613c5057613c4f613ada565b5b6000613c5e84828501613c25565b91505092915050565b60008115159050919050565b613c7c81613c67565b82525050565b6000602082019050613c976000830184613c73565b92915050565b613ca681613b04565b82525050565b6000602082019050613cc16000830184613c9d565b92915050565b600081519050919050565b600082825260208201905092915050565b60005b83811015613d01578082015181840152602081019050613ce6565b60008484015250505050565b6000601f19601f8301169050919050565b6000613d2982613cc7565b613d338185613cd2565b9350613d43818560208601613ce3565b613d4c81613d0d565b840191505092915050565b60006020820190508181036000830152613d718184613d1e565b905092915050565b600060208284031215613d8f57613d8e613ada565b5b6000613d9d84828501613b63565b91505092915050565b600060208284031215613dbc57613dbb613ada565b5b6000613dca84828501613b2d565b91505092915050565b600080fd5b7f4e487b7100000000000000000000000000000000000000000000000000000000600052604160045260246000fd5b613e1082613d0d565b810181811067ffffffffffffffff82111715613e2f57613e2e613dd8565b5b80604052505050565b6000613e42613ad0565b9050613e4e8282613e07565b919050565b600067ffffffffffffffff821115613e6e57613e6d613dd8565b5b602082029050602081019050919050565b600080fd5b6000613e97613e9284613e53565b613e38565b90508083825260208201905060208402830185811115613eba57613eb9613e7f565b5b835b81811015613ee35780613ecf8882613b63565b845260208401935050602081019050613ebc565b5050509392505050565b600082601f830112613f0257613f01613dd3565b5b8135613f12848260208601613e84565b91505092915050565b600080fd5b600067ffffffffffffffff821115613f3b57613f3a613dd8565b5b613f4482613d0d565b9050602081019050919050565b82818337600083830152505050565b6000613f73613f6e84613f20565b613e38565b905082815260208101848484011115613f8f57613f8e613f1b565b5b613f9a848285613f51565b509392505050565b600082601f830112613fb757613fb6613dd3565b5b8135613fc7848260208601613f60565b91505092915050565b600080600080600060a08688031215613fec57613feb613ada565b5b6000613ffa88828901613b2d565b955050602061400b88828901613b2d565b945050604086013567ffffffffffffffff81111561402c5761402b613adf565b5b61403888828901613eed565b935050606086013567ffffffffffffffff81111561405957614058613adf565b5b61406588828901613eed565b925050608086013567ffffffffffffffff81111561408657614085613adf565b5b61409288828901613fa2565b9150509295509295909350565b600060a0820190506140b46000830188613bb8565b81810360208301526140c68187613d1e565b905081810360408301526140da8186613d1e565b905081810360608301526140ee8185613d1e565b90506140fd6080830184613bb8565b9695505050505050565b600067ffffffffffffffff82111561412257614121613dd8565b5b602082029050602081019050919050565b600061414661414184614107565b613e38565b9050808382526020820190506020840283018581111561416957614168613e7f565b5b835b81811015614192578061417e8882613b2d565b84526020840193505060208101905061416b565b5050509392505050565b600082601f8301126141b1576141b0613dd3565b5b81356141c1848260208601614133565b91505092915050565b600080604083850312156141e1576141e0613ada565b5b600083013567ffffffffffffffff8111156141ff576141fe613adf565b5b61420b8582860161419c565b925050602083013567ffffffffffffffff81111561422c5761422b613adf565b5b61423885828601613eed565b9150509250929050565b600081519050919050565b600082825260208201905092915050565b6000819050602082019050919050565b61427781613b42565b82525050565b6000614289838361426e565b60208301905092915050565b6000602082019050919050565b60006142ad82614242565b6142b7818561424d565b93506142c28361425e565b8060005b838110156142f35781516142da888261427d565b97506142e583614295565b9250506001810190506142c6565b5085935050505092915050565b6000602082019050818103600083015261431a81846142a2565b905092915050565b600067ffffffffffffffff82111561433d5761433c613dd8565b5b61434682613d0d565b9050602081019050919050565b600061436661436184614322565b613e38565b90508281526020810184848401111561438257614381613f1b565b5b61438d848285613f51565b509392505050565b600082601f8301126143aa576143a9613dd3565b5b81356143ba848260208601614353565b91505092915050565b600080604083850312156143da576143d9613ada565b5b60006143e885828601613b2d565b925050602083013567ffffffffffffffff81111561440957614408613adf565b5b61441585828601614395565b9150509250929050565b600067ffffffffffffffff82111561443a57614439613dd8565b5b602082029050602081019050919050565b600061445e6144598461441f565b613e38565b9050808382526020820190506020840283018581111561448157614480613e7f565b5b835b818110156144c857803567ffffffffffffffff8111156144a6576144a5613dd3565b5b8086016144b38982614395565b85526020850194505050602081019050614483565b5050509392505050565b600082601f8301126144e7576144e6613dd3565b5b81356144f784826020860161444b565b91505092915050565b60008060006060848603121561451957614518613ada565b5b600061452786828701613b63565b935050602084013567ffffffffffffffff81111561454857614547613adf565b5b61455486828701613eed565b925050604084013567ffffffffffffffff81111561457557614574613adf565b5b614581868287016144d2565b9150509250925092565b600080600080608085870312156145a5576145a4613ada565b5b600085013567ffffffffffffffff8111156145c3576145c2613adf565b5b6145cf87828801614395565b945050602085013567ffffffffffffffff8111156145f0576145ef613adf565b5b6145fc87828801614395565b935050604085013567ffffffffffffffff81111561461d5761461c613adf565b5b61462987828801614395565b925050606061463a87828801613b63565b91505092959194509250565b60006020828403121561465c5761465b613ada565b5b600082013567ffffffffffffffff81111561467a57614679613adf565b5b61468684828501614395565b91505092915050565b61469881613c67565b81146146a357600080fd5b50565b6000813590506146b58161468f565b92915050565b600080604083850312156146d2576146d1613ada565b5b60006146e085828601613b2d565b92505060206146f1858286016146a6565b9150509250929050565b6000806040838503121561471257614711613ada565b5b600061472085828601613b63565b925050602061473185828601613b63565b9150509250929050565b6000806040838503121561475257614751613ada565b5b600061476085828601613b2d565b925050602061477185828601613b2d565b9150509250929050565b600080600080600060a0868803121561479757614796613ada565b5b60006147a588828901613b2d565b95505060206147b688828901613b2d565b94505060406147c788828901613b63565b93505060606147d888828901613b63565b925050608086013567ffffffffffffffff8111156147f9576147f8613adf565b5b61480588828901613fa2565b9150509295509295909350565b7f455243313135353a2061646472657373207a65726f206973206e6f742061207660008201527f616c6964206f776e657200000000000000000000000000000000000000000000602082015250565b600061486e602a83613cd2565b915061487982614812565b604082019050919050565b6000602082019050818103600083015261489d81614861565b9050919050565b7f4e487b7100000000000000000000000000000000000000000000000000000000600052602260045260246000fd5b600060028204905060018216806148eb57607f821691505b6020821081036148fe576148fd6148a4565b5b50919050565b600081905092915050565b50565b600061491f600083614904565b915061492a8261490f565b600082019050919050565b600061494082614912565b9150819050919050565b60008190508160005260206000209050919050565b6000815461496c816148d3565b6149768186614904565b9450600182166000811461499157600181146149a6576149d9565b60ff19831686528115158202860193506149d9565b6149af8561494a565b60005b838110156149d1578154818901526001820191506020810190506149b2565b838801955050505b50505092915050565b60006149ee828461495f565b915081905092915050565b7f455243313135353a2063616c6c6572206973206e6f7420746f6b656e206f776e60008201527f6572206e6f7220617070726f7665640000000000000000000000000000000000602082015250565b6000614a55602f83613cd2565b9150614a60826149f9565b604082019050919050565b60006020820190508181036000830152614a8481614a48565b9050919050565b7f455243313135353a206163636f756e747320616e6420696473206c656e67746860008201527f206d69736d617463680000000000000000000000000000000000000000000000602082015250565b6000614ae7602983613cd2565b9150614af282614a8b565b604082019050919050565b60006020820190508181036000830152614b1681614ada565b9050919050565b7f4e487b7100000000000000000000000000000000000000000000000000000000600052603260045260246000fd5b7f4e487b7100000000000000000000000000000000000000000000000000000000600052601160045260246000fd5b6000614b8682613b42565b91507fffffffffffffffffffffffffffffffffffffffffffffffffffffffffffffffff8203614bb857614bb7614b4c565b5b600182019050919050565b7f43616c6c6572206973206e6f742061646d696e00000000000000000000000000600082015250565b6000614bf9601383613cd2565b9150614c0482614bc3565b602082019050919050565b60006020820190508181036000830152614c2881614bec565b9050919050565b7f416464726573732030206e6f7420616c6c6f7765640000000000000000000000600082015250565b6000614c65601583613cd2565b9150614c7082614c2f565b602082019050919050565b60006020820190508181036000830152614c9481614c58565b9050919050565b60008154614ca8816148d3565b614cb28186613cd2565b94506001821660008114614ccd5760018114614ce357614d16565b60ff198316865281151560200286019350614d16565b614cec8561494a565b60005b83811015614d0e57815481890152600182019150602081019050614cef565b808801955050505b50505092915050565b60006020820190508181036000830152614d398184614c9b565b905092915050565b7f4461746120756e6368616e676564000000000000000000000000000000000000600082015250565b6000614d77600e83613cd2565b9150614d8282614d41565b602082019050919050565b60006020820190508181036000830152614da681614d6a565b9050919050565b6000614dba600083613cd2565b9150614dc58261490f565b600082019050919050565b60006020820190508181036000830152614de981614dad565b9050919050565b60006020601f8301049050919050565b600082821b905092915050565b600060088302614e3d7fffffffffffffffffffffffffffffffffffffffffffffffffffffffffffffffff82614e00565b614e478683614e00565b95508019841693508086168417925050509392505050565b6000819050919050565b6000614e84614e7f614e7a84613b42565b614e5f565b613b42565b9050919050565b6000819050919050565b614e9e83614e69565b614eb2614eaa82614e8b565b848454614e0d565b825550505050565b600090565b614ec7614eba565b614ed2818484614e95565b505050565b5b81811015614ef657614eeb600082614ebf565b600181019050614ed8565b5050565b601f821115614f3b57614f0c8161494a565b614f1584614df0565b81016020851015614f24578190505b614f38614f3085614df0565b830182614ed7565b50505b505050565b600082821c905092915050565b6000614f5e60001984600802614f40565b1980831691505092915050565b6000614f778383614f4d565b9150826002028217905092915050565b614f9082613cc7565b67ffffffffffffffff811115614fa957614fa8613dd8565b5b614fb382546148d3565b614fbe828285614efa565b600060209050601f831160018114614ff15760008415614fdf578287015190505b614fe98582614f6b565b865550615051565b601f198416614fff8661494a565b60005b8281101561502757848901518255600182019150602085019450602081019050615002565b868310156150445784890151615040601f891682614f4d565b8355505b6001600288020188555050505b505050505050565b600061506482613cc7565b61506e8185614904565b935061507e818560208601613ce3565b80840191505092915050565b60006150968284615059565b915081905092915050565b7f416d6f756e747320616e64206e696e6a61206c656e677468206d69736d61746360008201527f6800000000000000000000000000000000000000000000000000000000000000602082015250565b60006150fd602183613cd2565b9150615108826150a1565b604082019050919050565b6000602082019050818103600083015261512c816150f0565b9050919050565b7f4e696e6a6120756e6b6e6f776e00000000000000000000000000000000000000600082015250565b6000615169600d83613cd2565b915061517482615133565b602082019050919050565b600060208201905081810360008301526151988161515c565b9050919050565b7f55726920616c726561647920696e207573650000000000000000000000000000600082015250565b60006151d5601283613cd2565b91506151e08261519f565b602082019050919050565b60006020820190508181036000830152615204816151c8565b9050919050565b600061521682613b42565b915061522183613b42565b925082820190508082111561523957615238614b4c565b5b92915050565b600060608201905081810360008301526152598186613d1e565b9050818103602083015261526d8185613d1e565b905081810360408301526152818184613d1e565b9050949350505050565b7f546f6b656e206964206e6f7420696e2075736500000000000000000000000000600082015250565b60006152c1601383613cd2565b91506152cc8261528b565b602082019050919050565b600060208201905081810360008301526152f0816152b4565b9050919050565b7f43616c6c6572206973206e6f742063726561746f720000000000000000000000600082015250565b600061532d601583613cd2565b9150615338826152f7565b602082019050919050565b6000602082019050818103600083015261535c81615320565b9050919050565b7f43726561746f72206973206e6f742072656d6f7661626c650000000000000000600082015250565b6000615399601883613cd2565b91506153a482615363565b602082019050919050565b600060208201905081810360008301526153c88161538c565b9050919050565b600060408201905081810360008301526153e98185613d1e565b905081810360208301526153fd8184613d1e565b90509392505050565b7f455243313135353a2069647320616e6420616d6f756e7473206c656e6774682060008201527f6d69736d61746368000000000000000000000000000000000000000000000000602082015250565b6000615462602883613cd2565b915061546d82615406565b604082019050919050565b6000602082019050818103600083015261549181615455565b9050919050565b7f455243313135353a207472616e7366657220746f20746865207a65726f20616460008201527f6472657373000000000000000000000000000000000000000000000000000000602082015250565b60006154f4602583613cd2565b91506154ff82615498565b604082019050919050565b60006020820190508181036000830152615523816154e7565b9050919050565b7f455243313135353a20696e73756666696369656e742062616c616e636520666f60008201527f72207472616e7366657200000000000000000000000000000000000000000000602082015250565b6000615586602a83613cd2565b91506155918261552a565b604082019050919050565b600060208201905081810360008301526155b581615579565b9050919050565b600060408201905081810360008301526155d681856142a2565b905081810360208301526155ea81846142a2565b90509392505050565b60006155fe82613b42565b915061560983613b42565b925082820390508181111561562157615620614b4c565b5b92915050565b7f4e487b7100000000000000000000000000000000000000000000000000000000600052603160045260246000fd5b600060408201905081810360008301526156708185613d1e565b905061567f6020830184613bb8565b9392505050565b600060408201905061569b6000830185613bb8565b6156a86020830184613bb8565b9392505050565b600060808201905081810360008301526156c98187613d1e565b90506156d86020830186613bb8565b81810360408301526156ea8185613d1e565b90506156f96060830184613bb8565b95945050505050565b7f455243313135353a206d696e7420746f20746865207a65726f2061646472657360008201527f7300000000000000000000000000000000000000000000000000000000000000602082015250565b600061575e602183613cd2565b915061576982615702565b604082019050919050565b6000602082019050818103600083015261578d81615751565b9050919050565b7f455243313135353a2073657474696e6720617070726f76616c2073746174757360008201527f20666f722073656c660000000000000000000000000000000000000000000000602082015250565b60006157f0602983613cd2565b91506157fb82615794565b604082019050919050565b6000602082019050818103600083015261581f816157e3565b9050919050565b600060608201905081810360008301526158408186613d1e565b905061584f6020830185613c9d565b81810360408301526158618184613d1e565b9050949350505050565b600081519050919050565b600082825260208201905092915050565b60006158928261586b565b61589c8185615876565b93506158ac818560208601613ce3565b6158b581613d0d565b840191505092915050565b600060a0820190506158d56000830188613c9d565b6158e26020830187613c9d565b81810360408301526158f481866142a2565b9050818103606083015261590881856142a2565b9050818103608083015261591c8184615887565b90509695505050505050565b60008151905061593781613c0e565b92915050565b60006020828403121561595357615952613ada565b5b600061596184828501615928565b91505092915050565b60008160e01c9050919050565b600060033d11156159965760046000803e61599360005161596a565b90505b90565b600060443d10615a26576159ab613ad0565b60043d036004823e80513d602482011167ffffffffffffffff821117156159d3575050615a26565b808201805167ffffffffffffffff8111156159f15750505050615a26565b80602083010160043d038501811115615a0e575050505050615a26565b615a1d82602001850186613e07565b82955050505050505b90565b7f455243313135353a207472616e7366657220746f206e6f6e204552433131353560008201527f526563656976657220696d706c656d656e746572000000000000000000000000602082015250565b6000615a85603483613cd2565b9150615a9082615a29565b604082019050919050565b60006020820190508181036000830152615ab481615a78565b9050919050565b7f455243313135353a204552433131353552656365697665722072656a6563746560008201527f6420746f6b656e73000000000000000000000000000000000000000000000000602082015250565b6000615b17602883613cd2565b9150615b2282615abb565b604082019050919050565b60006020820190508181036000830152615b4681615b0a565b9050919050565b600060a082019050615b626000830188613c9d565b615b6f6020830187613c9d565b615b7c6040830186613bb8565b615b896060830185613bb8565b8181036080830152615b9b8184615887565b9050969550505050505056fe4d696e74696e67204e465420257320776974682055726920257320666f7220257320746f6b656e4368616e67652041646d696e2066756e6374696f6e20666f72206164647265737320257320616e64206e616d652025734372656174696e6720616e64206d696e74696e67204e465420257320776974682055726920257320666f7220257320746f6b656ea264697066735822122091f11c7b34e9e9608f8c0a83290e2d9f38d72a4330ef8f63dec26e60d6ac3ed564736f6c6343000811003368747470733a2f2f676174657761792e70696e6174612e636c6f75642f697066732f",
  "linkReferences": {},
  "deployedLinkReferences": {}
}