{
  "_format": "hh-sol-artifact-1",
  "contractName": "NinjaNFTNew",
  "sourceName": "contracts/NinjaNFTNew.sol",
  "abi": [
    {
      "inputs": [
        {
          "internalType": "string",
          "name": "_name",
          "type": "string"
        },
        {
          "internalType": "string",
          "name": "_symbol",
          "type": "string"
        },
        {
          "internalType": "address",
          "name": "_creator",
          "type": "address"
        },
        {
          "internalType": "string",
          "name": "_creatorName",
          "type": "string"
        }
      ],
      "stateMutability": "nonpayable",
      "type": "constructor"
    },
    {
      "anonymous": false,
      "inputs": [
        {
          "indexed": true,
          "internalType": "address",
          "name": "account",
          "type": "address"
        },
        {
          "indexed": true,
          "internalType": "address",
          "name": "operator",
          "type": "address"
        },
        {
          "indexed": false,
          "internalType": "bool",
          "name": "approved",
          "type": "bool"
        }
      ],
      "name": "ApprovalForAll",
      "type": "event"
    },
    {
      "anonymous": false,
      "inputs": [
        {
          "indexed": true,
          "internalType": "address",
          "name": "admin",
          "type": "address"
        },
        {
          "indexed": true,
          "internalType": "string",
          "name": "adminName",
          "type": "string"
        }
      ],
      "name": "ChangeAdmin",
      "type": "event"
    },
    {
      "anonymous": false,
      "inputs": [
        {
          "indexed": true,
          "internalType": "address",
          "name": "admin",
          "type": "address"
        },
        {
          "indexed": true,
          "internalType": "string",
          "name": "adminName",
          "type": "string"
        }
      ],
      "name": "ChangeNinja",
      "type": "event"
    },
    {
      "anonymous": false,
      "inputs": [
        {
          "indexed": true,
          "internalType": "uint256",
          "name": "count",
          "type": "uint256"
        },
        {
          "indexed": false,
          "internalType": "string",
          "name": "uri",
          "type": "string"
        },
        {
          "indexed": false,
          "internalType": "string",
          "name": "name",
          "type": "string"
        }
      ],
      "name": "CreateNFT",
      "type": "event"
    },
    {
      "anonymous": false,
      "inputs": [
        {
          "indexed": true,
          "internalType": "address",
          "name": "operator",
          "type": "address"
        },
        {
          "indexed": true,
          "internalType": "address",
          "name": "from",
          "type": "address"
        },
        {
          "indexed": true,
          "internalType": "address",
          "name": "to",
          "type": "address"
        },
        {
          "indexed": false,
          "internalType": "uint256[]",
          "name": "ids",
          "type": "uint256[]"
        },
        {
          "indexed": false,
          "internalType": "uint256[]",
          "name": "values",
          "type": "uint256[]"
        }
      ],
      "name": "TransferBatch",
      "type": "event"
    },
    {
      "anonymous": false,
      "inputs": [
        {
          "indexed": true,
          "internalType": "address",
          "name": "operator",
          "type": "address"
        },
        {
          "indexed": true,
          "internalType": "address",
          "name": "from",
          "type": "address"
        },
        {
          "indexed": true,
          "internalType": "address",
          "name": "to",
          "type": "address"
        },
        {
          "indexed": false,
          "internalType": "uint256",
          "name": "id",
          "type": "uint256"
        },
        {
          "indexed": false,
          "internalType": "uint256",
          "name": "value",
          "type": "uint256"
        }
      ],
      "name": "TransferSingle",
      "type": "event"
    },
    {
      "anonymous": false,
      "inputs": [
        {
          "indexed": false,
          "internalType": "string",
          "name": "value",
          "type": "string"
        },
        {
          "indexed": true,
          "internalType": "uint256",
          "name": "id",
          "type": "uint256"
        }
      ],
      "name": "URI",
      "type": "event"
    },
    {
      "inputs": [
        {
          "internalType": "uint256",
          "name": "",
          "type": "uint256"
        }
      ],
      "name": "adminAddr",
      "outputs": [
        {
          "internalType": "address",
          "name": "",
          "type": "address"
        }
      ],
      "stateMutability": "view",
      "type": "function"
    },
    {
      "inputs": [
        {
          "internalType": "address",
          "name": "",
          "type": "address"
        }
      ],
      "name": "admins",
      "outputs": [
        {
          "internalType": "string",
          "name": "",
          "type": "string"
        }
      ],
      "stateMutability": "view",
      "type": "function"
    },
    {
      "inputs": [
        {
          "internalType": "address",
          "name": "account",
          "type": "address"
        },
        {
          "internalType": "uint256",
          "name": "id",
          "type": "uint256"
        }
      ],
      "name": "balanceOf",
      "outputs": [
        {
          "internalType": "uint256",
          "name": "",
          "type": "uint256"
        }
      ],
      "stateMutability": "view",
      "type": "function"
    },
    {
      "inputs": [
        {
          "internalType": "address[]",
          "name": "accounts",
          "type": "address[]"
        },
        {
          "internalType": "uint256[]",
          "name": "ids",
          "type": "uint256[]"
        }
      ],
      "name": "balanceOfBatch",
      "outputs": [
        {
          "internalType": "uint256[]",
          "name": "",
          "type": "uint256[]"
        }
      ],
      "stateMutability": "view",
      "type": "function"
    },
    {
      "inputs": [
        {
          "internalType": "uint256",
          "name": "count",
          "type": "uint256"
        },
        {
          "internalType": "uint256[]",
          "name": "amounts",
          "type": "uint256[]"
        },
        {
          "internalType": "string[]",
          "name": "ninjaNames",
          "type": "string[]"
        }
      ],
      "name": "batchDistributeNFTs",
      "outputs": [],
      "stateMutability": "nonpayable",
      "type": "function"
    },
    {
      "inputs": [
        {
          "internalType": "address",
          "name": "admin",
          "type": "address"
        },
        {
          "internalType": "string",
          "name": "adminName",
          "type": "string"
        }
      ],
      "name": "changeAdmin",
      "outputs": [],
      "stateMutability": "nonpayable",
      "type": "function"
    },
    {
      "inputs": [
        {
          "internalType": "address",
          "name": "newCreator",
          "type": "address"
        },
        {
          "internalType": "string",
          "name": "newCreatorName",
          "type": "string"
        }
      ],
      "name": "changeCreator",
      "outputs": [],
      "stateMutability": "nonpayable",
      "type": "function"
    },
    {
      "inputs": [
        {
          "internalType": "address",
          "name": "ninja",
          "type": "address"
        },
        {
          "internalType": "string",
          "name": "ninjaName",
          "type": "string"
        }
      ],
      "name": "changeNinja",
      "outputs": [],
      "stateMutability": "nonpayable",
      "type": "function"
    },
    {
      "inputs": [
        {
          "internalType": "string",
          "name": "_uri",
          "type": "string"
        },
        {
          "internalType": "string",
          "name": "_name",
          "type": "string"
        },
        {
          "internalType": "uint256",
          "name": "_amount",
          "type": "uint256"
        }
      ],
      "name": "createAndMintNFT",
      "outputs": [],
      "stateMutability": "nonpayable",
      "type": "function"
    },
    {
      "inputs": [],
      "name": "creator",
      "outputs": [
        {
          "internalType": "address",
          "name": "",
          "type": "address"
        }
      ],
      "stateMutability": "view",
      "type": "function"
    },
    {
      "inputs": [],
      "name": "getAdminArrayLength",
      "outputs": [
        {
          "internalType": "uint256",
          "name": "",
          "type": "uint256"
        }
      ],
      "stateMutability": "view",
      "type": "function"
    },
    {
      "inputs": [],
      "name": "getNinjaArrayLength",
      "outputs": [
        {
          "internalType": "uint256",
          "name": "",
          "type": "uint256"
        }
      ],
      "stateMutability": "view",
      "type": "function"
    },
    {
      "inputs": [
        {
          "internalType": "address",
          "name": "admin",
          "type": "address"
        }
      ],
      "name": "isAdmin",
      "outputs": [
        {
          "internalType": "bool",
          "name": "",
          "type": "bool"
        }
      ],
      "stateMutability": "view",
      "type": "function"
    },
    {
      "inputs": [
        {
          "internalType": "address",
          "name": "_owner",
          "type": "address"
        },
        {
          "internalType": "address",
          "name": "_operator",
          "type": "address"
        }
      ],
      "name": "isApprovedForAll",
      "outputs": [
        {
          "internalType": "bool",
          "name": "isOperator",
          "type": "bool"
        }
      ],
      "stateMutability": "view",
      "type": "function"
    },
    {
      "inputs": [
        {
          "internalType": "address",
          "name": "ninja",
          "type": "address"
        }
      ],
      "name": "isNinja",
      "outputs": [
        {
          "internalType": "bool",
          "name": "",
          "type": "bool"
        }
      ],
      "stateMutability": "view",
      "type": "function"
    },
    {
      "inputs": [
        {
          "internalType": "uint256",
          "name": "_count",
          "type": "uint256"
        },
        {
          "internalType": "uint256",
          "name": "_amount",
          "type": "uint256"
        }
      ],
      "name": "mintNFT",
      "outputs": [],
      "stateMutability": "nonpayable",
      "type": "function"
    },
    {
      "inputs": [],
      "name": "name",
      "outputs": [
        {
          "internalType": "string",
          "name": "",
          "type": "string"
        }
      ],
      "stateMutability": "view",
      "type": "function"
    },
    {
      "inputs": [
        {
          "internalType": "uint256",
          "name": "",
          "type": "uint256"
        }
      ],
      "name": "ninjaAddr",
      "outputs": [
        {
          "internalType": "address",
          "name": "",
          "type": "address"
        }
      ],
      "stateMutability": "view",
      "type": "function"
    },
    {
      "inputs": [
        {
          "internalType": "address",
          "name": "",
          "type": "address"
        }
      ],
      "name": "ninjas",
      "outputs": [
        {
          "internalType": "string",
          "name": "",
          "type": "string"
        }
      ],
      "stateMutability": "view",
      "type": "function"
    },
    {
      "inputs": [
        {
          "internalType": "string",
          "name": "",
          "type": "string"
        }
      ],
      "name": "ninjasToAddress",
      "outputs": [
        {
          "internalType": "address",
          "name": "",
          "type": "address"
        }
      ],
      "stateMutability": "view",
      "type": "function"
    },
    {
      "inputs": [
        {
          "internalType": "address",
          "name": "from",
          "type": "address"
        },
        {
          "internalType": "address",
          "name": "to",
          "type": "address"
        },
        {
          "internalType": "uint256[]",
          "name": "ids",
          "type": "uint256[]"
        },
        {
          "internalType": "uint256[]",
          "name": "amounts",
          "type": "uint256[]"
        },
        {
          "internalType": "bytes",
          "name": "data",
          "type": "bytes"
        }
      ],
      "name": "safeBatchTransferFrom",
      "outputs": [],
      "stateMutability": "nonpayable",
      "type": "function"
    },
    {
      "inputs": [
        {
          "internalType": "address",
          "name": "from",
          "type": "address"
        },
        {
          "internalType": "address",
          "name": "to",
          "type": "address"
        },
        {
          "internalType": "uint256",
          "name": "id",
          "type": "uint256"
        },
        {
          "internalType": "uint256",
          "name": "amount",
          "type": "uint256"
        },
        {
          "internalType": "bytes",
          "name": "data",
          "type": "bytes"
        }
      ],
      "name": "safeTransferFrom",
      "outputs": [],
      "stateMutability": "nonpayable",
      "type": "function"
    },
    {
      "inputs": [
        {
          "internalType": "address",
          "name": "operator",
          "type": "address"
        },
        {
          "internalType": "bool",
          "name": "approved",
          "type": "bool"
        }
      ],
      "name": "setApprovalForAll",
      "outputs": [],
      "stateMutability": "nonpayable",
      "type": "function"
    },
    {
      "inputs": [
        {
          "internalType": "bytes4",
          "name": "interfaceId",
          "type": "bytes4"
        }
      ],
      "name": "supportsInterface",
      "outputs": [
        {
          "internalType": "bool",
          "name": "",
          "type": "bool"
        }
      ],
      "stateMutability": "view",
      "type": "function"
    },
    {
      "inputs": [],
      "name": "symbol",
      "outputs": [
        {
          "internalType": "string",
          "name": "",
          "type": "string"
        }
      ],
      "stateMutability": "view",
      "type": "function"
    },
    {
      "inputs": [],
      "name": "tokenCount",
      "outputs": [
        {
          "internalType": "uint256",
          "name": "",
          "type": "uint256"
        }
      ],
      "stateMutability": "view",
      "type": "function"
    },
    {
      "inputs": [
        {
          "internalType": "uint256",
          "name": "",
          "type": "uint256"
        }
      ],
      "name": "tokenCountToTokenInfo",
      "outputs": [
        {
          "internalType": "uint256",
          "name": "id",
          "type": "uint256"
        },
        {
          "internalType": "string",
          "name": "name",
          "type": "string"
        },
        {
          "internalType": "string",
          "name": "uri",
          "type": "string"
        },
        {
          "internalType": "uint256",
          "name": "quantity",
          "type": "uint256"
        }
      ],
      "stateMutability": "view",
      "type": "function"
    },
    {
      "inputs": [
        {
          "internalType": "uint256",
          "name": "",
          "type": "uint256"
        }
      ],
      "name": "tokenCountToUri",
      "outputs": [
        {
          "internalType": "string",
          "name": "",
          "type": "string"
        }
      ],
      "stateMutability": "view",
      "type": "function"
    },
    {
      "inputs": [
        {
          "internalType": "uint256",
          "name": "_count",
          "type": "uint256"
        }
      ],
      "name": "uri",
      "outputs": [
        {
          "internalType": "string",
          "name": "",
          "type": "string"
        }
      ],
      "stateMutability": "view",
      "type": "function"
    },
    {
      "inputs": [
        {
          "internalType": "string",
          "name": "",
          "type": "string"
        }
      ],
      "name": "uriToTokenCount",
      "outputs": [
        {
          "internalType": "uint256",
          "name": "",
          "type": "uint256"
        }
      ],
      "stateMutability": "view",
      "type": "function"
    }
  ],
  "bytecode": "0x60806040523480156200001157600080fd5b50604051620063c4380380620063c48339818101604052810190620000379190620003bb565b604051806060016040528060228152602001620063a2602291396200006281620001ae60201b60201c565b508360099081620000749190620006d5565b5082600a9081620000869190620006d5565b5081600360006101000a81548173ffffffffffffffffffffffffffffffffffffffff021916908373ffffffffffffffffffffffffffffffffffffffff1602179055508060046000600360009054906101000a900473ffffffffffffffffffffffffffffffffffffffff1673ffffffffffffffffffffffffffffffffffffffff1673ffffffffffffffffffffffffffffffffffffffff1681526020019081526020016000209081620001389190620006d5565b506005829080600181540180825580915050600190039060005260206000200160009091909190916101000a81548173ffffffffffffffffffffffffffffffffffffffff021916908373ffffffffffffffffffffffffffffffffffffffff1602179055506000600b8190555050505050620007bc565b8060029081620001bf9190620006d5565b5050565b6000604051905090565b600080fd5b600080fd5b600080fd5b600080fd5b6000601f19601f8301169050919050565b7f4e487b7100000000000000000000000000000000000000000000000000000000600052604160045260246000fd5b6200022c82620001e1565b810181811067ffffffffffffffff821117156200024e576200024d620001f2565b5b80604052505050565b600062000263620001c3565b905062000271828262000221565b919050565b600067ffffffffffffffff821115620002945762000293620001f2565b5b6200029f82620001e1565b9050602081019050919050565b60005b83811015620002cc578082015181840152602081019050620002af565b60008484015250505050565b6000620002ef620002e98462000276565b62000257565b9050828152602081018484840111156200030e576200030d620001dc565b5b6200031b848285620002ac565b509392505050565b600082601f8301126200033b576200033a620001d7565b5b81516200034d848260208601620002d8565b91505092915050565b600073ffffffffffffffffffffffffffffffffffffffff82169050919050565b6000620003838262000356565b9050919050565b620003958162000376565b8114620003a157600080fd5b50565b600081519050620003b5816200038a565b92915050565b60008060008060808587031215620003d857620003d7620001cd565b5b600085015167ffffffffffffffff811115620003f957620003f8620001d2565b5b620004078782880162000323565b945050602085015167ffffffffffffffff8111156200042b576200042a620001d2565b5b620004398782880162000323565b93505060406200044c87828801620003a4565b925050606085015167ffffffffffffffff81111562000470576200046f620001d2565b5b6200047e8782880162000323565b91505092959194509250565b600081519050919050565b7f4e487b7100000000000000000000000000000000000000000000000000000000600052602260045260246000fd5b60006002820490506001821680620004dd57607f821691505b602082108103620004f357620004f262000495565b5b50919050565b60008190508160005260206000209050919050565b60006020601f8301049050919050565b600082821b905092915050565b6000600883026200055d7fffffffffffffffffffffffffffffffffffffffffffffffffffffffffffffffff826200051e565b6200056986836200051e565b95508019841693508086168417925050509392505050565b6000819050919050565b6000819050919050565b6000620005b6620005b0620005aa8462000581565b6200058b565b62000581565b9050919050565b6000819050919050565b620005d28362000595565b620005ea620005e182620005bd565b8484546200052b565b825550505050565b600090565b62000601620005f2565b6200060e818484620005c7565b505050565b5b8181101562000636576200062a600082620005f7565b60018101905062000614565b5050565b601f82111562000685576200064f81620004f9565b6200065a846200050e565b810160208510156200066a578190505b6200068262000679856200050e565b83018262000613565b50505b505050565b600082821c905092915050565b6000620006aa600019846008026200068a565b1980831691505092915050565b6000620006c5838362000697565b9150826002028217905092915050565b620006e0826200048a565b67ffffffffffffffff811115620006fc57620006fb620001f2565b5b620007088254620004c4565b620007158282856200063a565b600060209050601f8311600181146200074d576000841562000738578287015190505b620007448582620006b7565b865550620007b4565b601f1984166200075d86620004f9565b60005b82811015620007875784890151825560018201915060208501945060208101905062000760565b86831015620007a75784890151620007a3601f89168262000697565b8355505b6001600288020188555050505b505050505050565b615bd680620007cc6000396000f3fe608060405234801561001057600080fd5b50600436106101d95760003560e01c8063762df1c611610104578063c5b5ef07116100a2578063e093f6ac11610071578063e093f6ac146105c9578063e316adb0146105e5578063e985e9c514610615578063f242432a14610645576101d9565b8063c5b5ef071461052f578063c9ada78e1461055f578063cdafd3111461057b578063d2fb043214610599576101d9565b80639bcf8a2b116100de5780639bcf8a2b146104a95780639f181b5e146104d9578063a22cb465146104f7578063c48283ff14610513576101d9565b8063762df1c6146104535780637bbfe9531461046f57806395d89b411461048b576101d9565b806324d7806c1161017c578063474ca5671161014b578063474ca567146103b95780634d6ee1bf146103d55780634e1273f41461040557806356ea96af14610435576101d9565b806324d7806c1461030a5780632eb2c2d61461033a57806332003bfd14610356578063429b62e514610389576101d9565b806306fdde03116101b857806306fdde031461025c5780630e89341c1461027a5780631528cb0e146102aa57806319a9c7bf146102da576101d9565b8062fdd58e146101de57806301ffc9a71461020e57806302d05d3f1461023e575b600080fd5b6101f860048036038101906101f39190613b77565b610661565b6040516102059190613bc6565b60405180910390f35b61022860048036038101906102239190613c39565b610729565b6040516102359190613c81565b60405180910390f35b61024661080b565b6040516102539190613cab565b60405180910390f35b610264610831565b6040516102719190613d56565b60405180910390f35b610294600480360381019061028f9190613d78565b6108bf565b6040516102a19190613d56565b60405180910390f35b6102c460048036038101906102bf9190613d78565b610a44565b6040516102d19190613d56565b60405180910390f35b6102f460048036038101906102ef9190613da5565b610ae4565b6040516103019190613d56565b60405180910390f35b610324600480360381019061031f9190613da5565b610b84565b6040516103319190613c81565b60405180910390f35b610354600480360381019061034f9190613fcf565b610c28565b005b610370600480360381019061036b9190613d78565b610cc9565b604051610380949392919061409e565b60405180910390f35b6103a3600480360381019061039e9190613da5565b610e09565b6040516103b09190613d56565b60405180910390f35b6103d360048036038101906103ce9190614192565b610ea9565b005b6103ef60048036038101906103ea9190613da5565b6111be565b6040516103fc9190613c81565b60405180910390f35b61041f600480360381019061041a91906142e0565b611262565b60405161042c9190614416565b60405180910390f35b61043d61137b565b60405161044a9190613bc6565b60405180910390f35b61046d60048036038101906104689190614438565b611388565b005b61048960048036038101906104849190614575565b611803565b005b610493611a8c565b6040516104a09190613d56565b60405180910390f35b6104c360048036038101906104be9190614600565b611b1a565b6040516104d09190613cab565b60405180910390f35b6104e1611b63565b6040516104ee9190613bc6565b60405180910390f35b610511600480360381019061050c9190614675565b611b69565b005b61052d600480360381019061052891906146b5565b611b7f565b005b61054960048036038101906105449190613d78565b611db9565b6040516105569190613cab565b60405180910390f35b61057960048036038101906105749190614438565b611df8565b005b610583611fab565b6040516105909190613bc6565b60405180910390f35b6105b360048036038101906105ae9190613d78565b611fb8565b6040516105c09190613cab565b60405180910390f35b6105e360048036038101906105de9190614438565b611ff7565b005b6105ff60048036038101906105fa9190614600565b612532565b60405161060c9190613bc6565b60405180910390f35b61062f600480360381019061062a91906146f5565b612560565b60405161063c9190613c81565b60405180910390f35b61065f600480360381019061065a9190614735565b612615565b005b60008073ffffffffffffffffffffffffffffffffffffffff168373ffffffffffffffffffffffffffffffffffffffff16036106d1576040517f08c379a00000000000000000000000000000000000000000000000000000000081526004016106c89061483e565b60405180910390fd5b60008083815260200190815260200160002060008473ffffffffffffffffffffffffffffffffffffffff1673ffffffffffffffffffffffffffffffffffffffff16815260200190815260200160002054905092915050565b60007fd9b67a26000000000000000000000000000000000000000000000000000000007bffffffffffffffffffffffffffffffffffffffffffffffffffffffff1916827bffffffffffffffffffffffffffffffffffffffffffffffffffffffff191614806107f457507f0e89341c000000000000000000000000000000000000000000000000000000007bffffffffffffffffffffffffffffffffffffffffffffffffffffffff1916827bffffffffffffffffffffffffffffffffffffffffffffffffffffffff1916145b806108045750610803826126b6565b5b9050919050565b600360009054906101000a900473ffffffffffffffffffffffffffffffffffffffff1681565b6009805461083e9061488d565b80601f016020809104026020016040519081016040528092919081815260200182805461086a9061488d565b80156108b75780601f1061088c576101008083540402835291602001916108b7565b820191906000526020600020905b81548152906001019060200180831161089a57829003601f168201915b505050505081565b606061099e6040518060400160405280601f81526020017f43616c6c696e67205572692066756e6374696f6e20666f722075726920257300815250600e6000858152602001908152602001600020600201805461091b9061488d565b80601f01602080910402602001604051908101604052809291908181526020018280546109479061488d565b80156109945780601f1061096957610100808354040283529160200191610994565b820191906000526020600020905b81548152906001019060200180831161097757829003601f168201915b5050505050612720565b600e600083815260200190815260200160002060020180546109bf9061488d565b80601f01602080910402602001604051908101604052809291908181526020018280546109eb9061488d565b8015610a385780601f10610a0d57610100808354040283529160200191610a38565b820191906000526020600020905b815481529060010190602001808311610a1b57829003601f168201915b50505050509050919050565b600c6020528060005260406000206000915090508054610a639061488d565b80601f0160208091040260200160405190810160405280929190818152602001828054610a8f9061488d565b8015610adc5780601f10610ab157610100808354040283529160200191610adc565b820191906000526020600020905b815481529060010190602001808311610abf57829003601f168201915b505050505081565b60066020528060005260406000206000915090508054610b039061488d565b80601f0160208091040260200160405190810160405280929190818152602001828054610b2f9061488d565b8015610b7c5780601f10610b5157610100808354040283529160200191610b7c565b820191906000526020600020905b815481529060010190602001808311610b5f57829003601f168201915b505050505081565b6000604051602001610b95906148ef565b60405160208183030381529060405280519060200120600460008473ffffffffffffffffffffffffffffffffffffffff1673ffffffffffffffffffffffffffffffffffffffff168152602001908152602001600020604051602001610bfa919061499c565b6040516020818303038152906040528051906020012003610c1e5760009050610c23565b600190505b919050565b610c306127bc565b73ffffffffffffffffffffffffffffffffffffffff168573ffffffffffffffffffffffffffffffffffffffff161480610c765750610c7585610c706127bc565b612560565b5b610cb5576040517f08c379a0000000000000000000000000000000000000000000000000000000008152600401610cac90614a25565b60405180910390fd5b610cc285858585856127c4565b5050505050565b600e602052806000526040600020600091509050806000015490806001018054610cf29061488d565b80601f0160208091040260200160405190810160405280929190818152602001828054610d1e9061488d565b8015610d6b5780601f10610d4057610100808354040283529160200191610d6b565b820191906000526020600020905b815481529060010190602001808311610d4e57829003601f168201915b505050505090806002018054610d809061488d565b80601f0160208091040260200160405190810160405280929190818152602001828054610dac9061488d565b8015610df95780601f10610dce57610100808354040283529160200191610df9565b820191906000526020600020905b815481529060010190602001808311610ddc57829003601f168201915b5050505050908060030154905084565b60046020528060005260406000206000915090508054610e289061488d565b80601f0160208091040260200160405190810160405280929190818152602001828054610e549061488d565b8015610ea15780601f10610e7657610100808354040283529160200191610ea1565b820191906000526020600020905b815481529060010190602001808311610e8457829003601f168201915b505050505081565b6000600460003373ffffffffffffffffffffffffffffffffffffffff1673ffffffffffffffffffffffffffffffffffffffff1681526020019081526020016000208054610ef59061488d565b905003610f37576040517f08c379a0000000000000000000000000000000000000000000000000000000008152600401610f2e90614a91565b60405180910390fd5b6000600d84604051610f499190614ae2565b90815260200160405180910390205414610f98576040517f08c379a0000000000000000000000000000000000000000000000000000000008152600401610f8f90614b45565b60405180910390fd5b6001600b6000828254610fab9190614b94565b9250508190555082600c6000600b5481526020019081526020016000209081610fd49190614d5f565b50600b54600d84604051610fe89190614ae2565b908152602001604051809103902081905550600b54600e6000600b5481526020019081526020016000206000018190555081600e6000600b548152602001908152602001600020600101908161103e9190614d5f565b5082600e6000600b54815260200190815260200160002060020190816110649190614d5f565b5080600e6000600b54815260200190815260200160002060030181905550611160604051806060016040528060348152602001615b6d60349139600b54600e6000600b54815260200190815260200160002060020180546110c49061488d565b80601f01602080910402602001604051908101604052809291908181526020018280546110f09061488d565b801561113d5780601f106111125761010080835404028352916020019161113d565b820191906000526020600020905b81548152906001019060200180831161112057829003601f168201915b5050505050600e6000600b54815260200190815260200160002060030154612ae5565b600b547fcecb5dfff75f1d68048e5d6802c8066ac7e76150855d82c486913e4bcaccb1c48484604051611194929190614e31565b60405180910390a26111b933600b548360405180602001604052806000815250612b87565b505050565b60006040516020016111cf906148ef565b60405160208183030381529060405280519060200120600660008473ffffffffffffffffffffffffffffffffffffffff1673ffffffffffffffffffffffffffffffffffffffff168152602001908152602001600020604051602001611234919061499c565b6040516020818303038152906040528051906020012003611258576000905061125d565b600190505b919050565b606081518351146112a8576040517f08c379a000000000000000000000000000000000000000000000000000000000815260040161129f90614eda565b60405180910390fd5b6000835167ffffffffffffffff8111156112c5576112c4613dd7565b5b6040519080825280602002602001820160405280156112f35781602001602082028036833780820191505090505b50905060005b84518110156113705761134085828151811061131857611317614efa565b5b602002602001015185838151811061133357611332614efa565b5b6020026020010151610661565b82828151811061135357611352614efa565b5b6020026020010181815250508061136990614f29565b90506112f9565b508091505092915050565b6000600880549050905090565b6000600460003373ffffffffffffffffffffffffffffffffffffffff1673ffffffffffffffffffffffffffffffffffffffff16815260200190815260200160002080546113d49061488d565b905003611416576040517f08c379a000000000000000000000000000000000000000000000000000000000815260040161140d90614a91565b60405180910390fd5b600073ffffffffffffffffffffffffffffffffffffffff168273ffffffffffffffffffffffffffffffffffffffff1603611485576040517f08c379a000000000000000000000000000000000000000000000000000000000815260040161147c90614fbd565b60405180910390fd5b806040516020016114969190613d56565b60405160208183030381529060405280519060200120600660008473ffffffffffffffffffffffffffffffffffffffff1673ffffffffffffffffffffffffffffffffffffffff1681526020019081526020016000206040516020016114fb9190615061565b6040516020818303038152906040528051906020012003611551576040517f08c379a0000000000000000000000000000000000000000000000000000000008152600401611548906150cf565b60405180910390fd5b60405160200161156090615112565b60405160208183030381529060405280519060200120600660008473ffffffffffffffffffffffffffffffffffffffff1673ffffffffffffffffffffffffffffffffffffffff1681526020019081526020016000206040516020016115c59190615061565b6040516020818303038152906040528051906020012014611698576115e982612d37565b80600660008473ffffffffffffffffffffffffffffffffffffffff1673ffffffffffffffffffffffffffffffffffffffff16815260200190815260200160002090816116359190614d5f565b50816007826040516116479190614ae2565b908152602001604051809103902060006101000a81548173ffffffffffffffffffffffffffffffffffffffff021916908373ffffffffffffffffffffffffffffffffffffffff1602179055506117a6565b80600660008473ffffffffffffffffffffffffffffffffffffffff1673ffffffffffffffffffffffffffffffffffffffff16815260200190815260200160002090816116e49190614d5f565b50816007826040516116f69190614ae2565b908152602001604051809103902060006101000a81548173ffffffffffffffffffffffffffffffffffffffff021916908373ffffffffffffffffffffffffffffffffffffffff1602179055506008829080600181540180825580915050600190039060005260206000200160009091909190916101000a81548173ffffffffffffffffffffffffffffffffffffffff021916908373ffffffffffffffffffffffffffffffffffffffff1602179055505b806040516117b49190614ae2565b60405180910390208273ffffffffffffffffffffffffffffffffffffffff167f391b1846c95e46f60b8f47a56024e6b2524679de5e49814209a3537a2aca0a7060405160405180910390a35050565b6000600460003373ffffffffffffffffffffffffffffffffffffffff1673ffffffffffffffffffffffffffffffffffffffff168152602001908152602001600020805461184f9061488d565b905003611891576040517f08c379a000000000000000000000000000000000000000000000000000000000815260040161188890614a91565b60405180910390fd5b80518251146118d5576040517f08c379a00000000000000000000000000000000000000000000000000000000081526004016118cc906151a4565b60405180910390fd5b6119146040518060400160405280601381526020017f446973747269627574696e67204e46542025730000000000000000000000000081525084612ed6565b60005b8251811015611a8657600073ffffffffffffffffffffffffffffffffffffffff16600783838151811061194d5761194c614efa565b5b60200260200101516040516119629190614ae2565b908152602001604051809103902060009054906101000a900473ffffffffffffffffffffffffffffffffffffffff1673ffffffffffffffffffffffffffffffffffffffff16036119e7576040517f08c379a00000000000000000000000000000000000000000000000000000000081526004016119de90615210565b60405180910390fd5b611a75336007848481518110611a00576119ff614efa565b5b6020026020010151604051611a159190614ae2565b908152602001604051809103902060009054906101000a900473ffffffffffffffffffffffffffffffffffffffff1686868581518110611a5857611a57614efa565b5b602002602001015160405180602001604052806000815250612f72565b80611a7f90614f29565b9050611917565b50505050565b600a8054611a999061488d565b80601f0160208091040260200160405190810160405280929190818152602001828054611ac59061488d565b8015611b125780601f10611ae757610100808354040283529160200191611b12565b820191906000526020600020905b815481529060010190602001808311611af557829003601f168201915b505050505081565b6007818051602081018201805184825260208301602085012081835280955050505050506000915054906101000a900473ffffffffffffffffffffffffffffffffffffffff1681565b600b5481565b611b7b611b746127bc565b838361320d565b5050565b6000600460003373ffffffffffffffffffffffffffffffffffffffff1673ffffffffffffffffffffffffffffffffffffffff1681526020019081526020016000208054611bcb9061488d565b905003611c0d576040517f08c379a0000000000000000000000000000000000000000000000000000000008152600401611c0490614a91565b60405180910390fd5b604051602001611c1c90615112565b60405160208183030381529060405280519060200120600c6000848152602001908152602001600020604051602001611c559190615061565b6040516020818303038152906040528051906020012003611cab576040517f08c379a0000000000000000000000000000000000000000000000000000000008152600401611ca29061527c565b60405180910390fd5b80600e60008481526020019081526020016000206003016000828254611cd19190614b94565b92505081905550611d9a604051806060016040528060278152602001615b166027913983600e60008681526020019081526020016000206002018054611d169061488d565b80601f0160208091040260200160405190810160405280929190818152602001828054611d429061488d565b8015611d8f5780601f10611d6457610100808354040283529160200191611d8f565b820191906000526020600020905b815481529060010190602001808311611d7257829003601f168201915b505050505084612ae5565b611db533838360405180602001604052806000815250612b87565b5050565b60088181548110611dc957600080fd5b906000526020600020016000915054906101000a900473ffffffffffffffffffffffffffffffffffffffff1681565b600073ffffffffffffffffffffffffffffffffffffffff168273ffffffffffffffffffffffffffffffffffffffff1603611e67576040517f08c379a0000000000000000000000000000000000000000000000000000000008152600401611e5e90614fbd565b60405180910390fd5b3373ffffffffffffffffffffffffffffffffffffffff16600360009054906101000a900473ffffffffffffffffffffffffffffffffffffffff1673ffffffffffffffffffffffffffffffffffffffff1614611ef7576040517f08c379a0000000000000000000000000000000000000000000000000000000008152600401611eee906152e8565b60405180910390fd5b81600360006101000a81548173ffffffffffffffffffffffffffffffffffffffff021916908373ffffffffffffffffffffffffffffffffffffffff1602179055508060046000600360009054906101000a900473ffffffffffffffffffffffffffffffffffffffff1673ffffffffffffffffffffffffffffffffffffffff1673ffffffffffffffffffffffffffffffffffffffff1681526020019081526020016000209081611fa69190614d5f565b505050565b6000600580549050905090565b60058181548110611fc857600080fd5b906000526020600020016000915054906101000a900473ffffffffffffffffffffffffffffffffffffffff1681565b6000600460003373ffffffffffffffffffffffffffffffffffffffff1673ffffffffffffffffffffffffffffffffffffffff16815260200190815260200160002080546120439061488d565b905003612085576040517f08c379a000000000000000000000000000000000000000000000000000000000815260040161207c90614a91565b60405180910390fd5b600360009054906101000a900473ffffffffffffffffffffffffffffffffffffffff1673ffffffffffffffffffffffffffffffffffffffff168273ffffffffffffffffffffffffffffffffffffffff1603612115576040517f08c379a000000000000000000000000000000000000000000000000000000000815260040161210c90615354565b60405180910390fd5b600073ffffffffffffffffffffffffffffffffffffffff168273ffffffffffffffffffffffffffffffffffffffff1603612184576040517f08c379a000000000000000000000000000000000000000000000000000000000815260040161217b90614fbd565b60405180910390fd5b806040516020016121959190613d56565b60405160208183030381529060405280519060200120600460008473ffffffffffffffffffffffffffffffffffffffff1673ffffffffffffffffffffffffffffffffffffffff1681526020019081526020016000206040516020016121fa9190615061565b6040516020818303038152906040528051906020012003612250576040517f08c379a0000000000000000000000000000000000000000000000000000000008152600401612247906150cf565b60405180910390fd5b60405160200161225f90615112565b60405160208183030381529060405280519060200120600460008473ffffffffffffffffffffffffffffffffffffffff1673ffffffffffffffffffffffffffffffffffffffff1681526020019081526020016000206040516020016122c49190615061565b604051602081830303815290604052805190602001201461233a576122e882613379565b80600460008473ffffffffffffffffffffffffffffffffffffffff1673ffffffffffffffffffffffffffffffffffffffff16815260200190815260200160002090816123349190614d5f565b506123eb565b80600460008473ffffffffffffffffffffffffffffffffffffffff1673ffffffffffffffffffffffffffffffffffffffff16815260200190815260200160002090816123869190614d5f565b506005829080600181540180825580915050600190039060005260206000200160009091909190916101000a81548173ffffffffffffffffffffffffffffffffffffffff021916908373ffffffffffffffffffffffffffffffffffffffff1602179055505b6124d5604051806060016040528060308152602001615b3d6030913983600460008673ffffffffffffffffffffffffffffffffffffffff1673ffffffffffffffffffffffffffffffffffffffff16815260200190815260200160002080546124529061488d565b80601f016020809104026020016040519081016040528092919081815260200182805461247e9061488d565b80156124cb5780601f106124a0576101008083540402835291602001916124cb565b820191906000526020600020905b8154815290600101906020018083116124ae57829003601f168201915b5050505050613518565b806040516124e39190614ae2565b60405180910390208273ffffffffffffffffffffffffffffffffffffffff167f744c99d9cbd15e25d2f68446c12be92127f8f9f1ab888e8e93bf74f4ad7455d160405160405180910390a35050565b600d818051602081018201805184825260208301602085012081835280955050505050506000915090505481565b600073207fa8df3a17d96ca7ea4f2893fcdcb78a30410173ffffffffffffffffffffffffffffffffffffffff168273ffffffffffffffffffffffffffffffffffffffff16036125b2576001905061260f565b7353d791f18155c211ff8b58671d0f7e9b50e596ad73ffffffffffffffffffffffffffffffffffffffff168273ffffffffffffffffffffffffffffffffffffffff1603612602576001905061260f565b61260c83836135b7565b90505b92915050565b61261d6127bc565b73ffffffffffffffffffffffffffffffffffffffff168573ffffffffffffffffffffffffffffffffffffffff16148061266357506126628561265d6127bc565b612560565b5b6126a2576040517f08c379a000000000000000000000000000000000000000000000000000000000815260040161269990614a25565b60405180910390fd5b6126af8585858585612f72565b5050505050565b60007f01ffc9a7000000000000000000000000000000000000000000000000000000007bffffffffffffffffffffffffffffffffffffffffffffffffffffffff1916827bffffffffffffffffffffffffffffffffffffffffffffffffffffffff1916149050919050565b6127b88282604051602401612736929190614e31565b6040516020818303038152906040527f4b5c4277000000000000000000000000000000000000000000000000000000007bffffffffffffffffffffffffffffffffffffffffffffffffffffffff19166020820180517bffffffffffffffffffffffffffffffffffffffffffffffffffffffff838183161783525050505061364b565b5050565b600033905090565b8151835114612808576040517f08c379a00000000000000000000000000000000000000000000000000000000081526004016127ff906153e6565b60405180910390fd5b600073ffffffffffffffffffffffffffffffffffffffff168473ffffffffffffffffffffffffffffffffffffffff1603612877576040517f08c379a000000000000000000000000000000000000000000000000000000000815260040161286e90615478565b60405180910390fd5b60006128816127bc565b9050612891818787878787613674565b60005b8451811015612a425760008582815181106128b2576128b1614efa565b5b6020026020010151905060008583815181106128d1576128d0614efa565b5b60200260200101519050600080600084815260200190815260200160002060008b73ffffffffffffffffffffffffffffffffffffffff1673ffffffffffffffffffffffffffffffffffffffff16815260200190815260200160002054905081811015612972576040517f08c379a00000000000000000000000000000000000000000000000000000000081526004016129699061550a565b60405180910390fd5b81810360008085815260200190815260200160002060008c73ffffffffffffffffffffffffffffffffffffffff1673ffffffffffffffffffffffffffffffffffffffff168152602001908152602001600020819055508160008085815260200190815260200160002060008b73ffffffffffffffffffffffffffffffffffffffff1673ffffffffffffffffffffffffffffffffffffffff1681526020019081526020016000206000828254612a279190614b94565b9250508190555050505080612a3b90614f29565b9050612894565b508473ffffffffffffffffffffffffffffffffffffffff168673ffffffffffffffffffffffffffffffffffffffff168273ffffffffffffffffffffffffffffffffffffffff167f4a39dc06d4c0dbc64b70af90fd698a233a518aa5d07e595d983b8c0526c8f7fb8787604051612ab992919061552a565b60405180910390a4612acf81878787878761367c565b612add818787878787613684565b505050505050565b612b8184848484604051602401612aff9493929190615561565b6040516020818303038152906040527fc67ea9d1000000000000000000000000000000000000000000000000000000007bffffffffffffffffffffffffffffffffffffffffffffffffffffffff19166020820180517bffffffffffffffffffffffffffffffffffffffffffffffffffffffff838183161783525050505061364b565b50505050565b600073ffffffffffffffffffffffffffffffffffffffff168473ffffffffffffffffffffffffffffffffffffffff1603612bf6576040517f08c379a0000000000000000000000000000000000000000000000000000000008152600401612bed90615626565b60405180910390fd5b6000612c006127bc565b90506000612c0d8561385b565b90506000612c1a8561385b565b9050612c2b83600089858589613674565b8460008088815260200190815260200160002060008973ffffffffffffffffffffffffffffffffffffffff1673ffffffffffffffffffffffffffffffffffffffff1681526020019081526020016000206000828254612c8a9190614b94565b925050819055508673ffffffffffffffffffffffffffffffffffffffff16600073ffffffffffffffffffffffffffffffffffffffff168473ffffffffffffffffffffffffffffffffffffffff167fc3d58168c5ae7397731d063d5bbf3d657854427343f4c083240f7aacaa2d0f628989604051612d08929190615646565b60405180910390a4612d1f8360008985858961367c565b612d2e836000898989896138d5565b50505050505050565b600080600090505b600880549050811015612dd8578273ffffffffffffffffffffffffffffffffffffffff1660088281548110612d7757612d76614efa565b5b9060005260206000200160009054906101000a900473ffffffffffffffffffffffffffffffffffffffff1673ffffffffffffffffffffffffffffffffffffffff1603612dc557809150612dd8565b8080612dd090614f29565b915050612d3f565b50600060086001600880549050612def919061566f565b81548110612e0057612dff614efa565b5b9060005260206000200160009054906101000a900473ffffffffffffffffffffffffffffffffffffffff1690508060088381548110612e4257612e41614efa565b5b9060005260206000200160006101000a81548173ffffffffffffffffffffffffffffffffffffffff021916908373ffffffffffffffffffffffffffffffffffffffff1602179055506008805480612e9c57612e9b6156a3565b5b6001900381819060005260206000200160006101000a81549073ffffffffffffffffffffffffffffffffffffffff02191690559055505050565b612f6e8282604051602401612eec9291906156d2565b6040516020818303038152906040527fb60e72cc000000000000000000000000000000000000000000000000000000007bffffffffffffffffffffffffffffffffffffffffffffffffffffffff19166020820180517bffffffffffffffffffffffffffffffffffffffffffffffffffffffff838183161783525050505061364b565b5050565b600073ffffffffffffffffffffffffffffffffffffffff168473ffffffffffffffffffffffffffffffffffffffff1603612fe1576040517f08c379a0000000000000000000000000000000000000000000000000000000008152600401612fd890615478565b60405180910390fd5b6000612feb6127bc565b90506000612ff88561385b565b905060006130058561385b565b9050613015838989858589613674565b600080600088815260200190815260200160002060008a73ffffffffffffffffffffffffffffffffffffffff1673ffffffffffffffffffffffffffffffffffffffff168152602001908152602001600020549050858110156130ac576040517f08c379a00000000000000000000000000000000000000000000000000000000081526004016130a39061550a565b60405180910390fd5b85810360008089815260200190815260200160002060008b73ffffffffffffffffffffffffffffffffffffffff1673ffffffffffffffffffffffffffffffffffffffff168152602001908152602001600020819055508560008089815260200190815260200160002060008a73ffffffffffffffffffffffffffffffffffffffff1673ffffffffffffffffffffffffffffffffffffffff16815260200190815260200160002060008282546131619190614b94565b925050819055508773ffffffffffffffffffffffffffffffffffffffff168973ffffffffffffffffffffffffffffffffffffffff168573ffffffffffffffffffffffffffffffffffffffff167fc3d58168c5ae7397731d063d5bbf3d657854427343f4c083240f7aacaa2d0f628a8a6040516131de929190615646565b60405180910390a46131f4848a8a86868a61367c565b613202848a8a8a8a8a6138d5565b505050505050505050565b8173ffffffffffffffffffffffffffffffffffffffff168373ffffffffffffffffffffffffffffffffffffffff160361327b576040517f08c379a000000000000000000000000000000000000000000000000000000000815260040161327290615774565b60405180910390fd5b80600160008573ffffffffffffffffffffffffffffffffffffffff1673ffffffffffffffffffffffffffffffffffffffff16815260200190815260200160002060008473ffffffffffffffffffffffffffffffffffffffff1673ffffffffffffffffffffffffffffffffffffffff16815260200190815260200160002060006101000a81548160ff0219169083151502179055508173ffffffffffffffffffffffffffffffffffffffff168373ffffffffffffffffffffffffffffffffffffffff167f17307eab39ab6107e8899845ad3d59bd9653f200f220920489ca2b5937696c318360405161336c9190613c81565b60405180910390a3505050565b600080600090505b60058054905081101561341a578273ffffffffffffffffffffffffffffffffffffffff16600582815481106133b9576133b8614efa565b5b9060005260206000200160009054906101000a900473ffffffffffffffffffffffffffffffffffffffff1673ffffffffffffffffffffffffffffffffffffffff16036134075780915061341a565b808061341290614f29565b915050613381565b50600060056001600580549050613431919061566f565b8154811061344257613441614efa565b5b9060005260206000200160009054906101000a900473ffffffffffffffffffffffffffffffffffffffff169050806005838154811061348457613483614efa565b5b9060005260206000200160006101000a81548173ffffffffffffffffffffffffffffffffffffffff021916908373ffffffffffffffffffffffffffffffffffffffff16021790555060058054806134de576134dd6156a3565b5b6001900381819060005260206000200160006101000a81549073ffffffffffffffffffffffffffffffffffffffff02191690559055505050565b6135b283838360405160240161353093929190615794565b6040516020818303038152906040527fe0e9ad4f000000000000000000000000000000000000000000000000000000007bffffffffffffffffffffffffffffffffffffffffffffffffffffffff19166020820180517bffffffffffffffffffffffffffffffffffffffffffffffffffffffff838183161783525050505061364b565b505050565b6000600160008473ffffffffffffffffffffffffffffffffffffffff1673ffffffffffffffffffffffffffffffffffffffff16815260200190815260200160002060008373ffffffffffffffffffffffffffffffffffffffff1673ffffffffffffffffffffffffffffffffffffffff16815260200190815260200160002060009054906101000a900460ff16905092915050565b60008151905060006a636f6e736f6c652e6c6f679050602083016000808483855afa5050505050565b505050505050565b505050505050565b6136a38473ffffffffffffffffffffffffffffffffffffffff16613aac565b15613853578373ffffffffffffffffffffffffffffffffffffffff1663bc197c8187878686866040518663ffffffff1660e01b81526004016136e995949392919061582e565b6020604051808303816000875af192505050801561372557506040513d601f19601f8201168201806040525081019061372291906158ab565b60015b6137ca576137316158e5565b806308c379a00361378d5750613745615907565b80613750575061378f565b806040517f08c379a00000000000000000000000000000000000000000000000000000000081526004016137849190613d56565b60405180910390fd5b505b6040517f08c379a00000000000000000000000000000000000000000000000000000000081526004016137c190615a09565b60405180910390fd5b63bc197c8160e01b7bffffffffffffffffffffffffffffffffffffffffffffffffffffffff1916817bffffffffffffffffffffffffffffffffffffffffffffffffffffffff191614613851576040517f08c379a000000000000000000000000000000000000000000000000000000000815260040161384890615a9b565b60405180910390fd5b505b505050505050565b60606000600167ffffffffffffffff81111561387a57613879613dd7565b5b6040519080825280602002602001820160405280156138a85781602001602082028036833780820191505090505b50905082816000815181106138c0576138bf614efa565b5b60200260200101818152505080915050919050565b6138f48473ffffffffffffffffffffffffffffffffffffffff16613aac565b15613aa4578373ffffffffffffffffffffffffffffffffffffffff1663f23a6e6187878686866040518663ffffffff1660e01b815260040161393a959493929190615abb565b6020604051808303816000875af192505050801561397657506040513d601f19601f8201168201806040525081019061397391906158ab565b60015b613a1b576139826158e5565b806308c379a0036139de5750613996615907565b806139a157506139e0565b806040517f08c379a00000000000000000000000000000000000000000000000000000000081526004016139d59190613d56565b60405180910390fd5b505b6040517f08c379a0000000000000000000000000000000000000000000000000000000008152600401613a1290615a09565b60405180910390fd5b63f23a6e6160e01b7bffffffffffffffffffffffffffffffffffffffffffffffffffffffff1916817bffffffffffffffffffffffffffffffffffffffffffffffffffffffff191614613aa2576040517f08c379a0000000000000000000000000000000000000000000000000000000008152600401613a9990615a9b565b60405180910390fd5b505b505050505050565b6000808273ffffffffffffffffffffffffffffffffffffffff163b119050919050565b6000604051905090565b600080fd5b600080fd5b600073ffffffffffffffffffffffffffffffffffffffff82169050919050565b6000613b0e82613ae3565b9050919050565b613b1e81613b03565b8114613b2957600080fd5b50565b600081359050613b3b81613b15565b92915050565b6000819050919050565b613b5481613b41565b8114613b5f57600080fd5b50565b600081359050613b7181613b4b565b92915050565b60008060408385031215613b8e57613b8d613ad9565b5b6000613b9c85828601613b2c565b9250506020613bad85828601613b62565b9150509250929050565b613bc081613b41565b82525050565b6000602082019050613bdb6000830184613bb7565b92915050565b60007fffffffff0000000000000000000000000000000000000000000000000000000082169050919050565b613c1681613be1565b8114613c2157600080fd5b50565b600081359050613c3381613c0d565b92915050565b600060208284031215613c4f57613c4e613ad9565b5b6000613c5d84828501613c24565b91505092915050565b60008115159050919050565b613c7b81613c66565b82525050565b6000602082019050613c966000830184613c72565b92915050565b613ca581613b03565b82525050565b6000602082019050613cc06000830184613c9c565b92915050565b600081519050919050565b600082825260208201905092915050565b60005b83811015613d00578082015181840152602081019050613ce5565b60008484015250505050565b6000601f19601f8301169050919050565b6000613d2882613cc6565b613d328185613cd1565b9350613d42818560208601613ce2565b613d4b81613d0c565b840191505092915050565b60006020820190508181036000830152613d708184613d1d565b905092915050565b600060208284031215613d8e57613d8d613ad9565b5b6000613d9c84828501613b62565b91505092915050565b600060208284031215613dbb57613dba613ad9565b5b6000613dc984828501613b2c565b91505092915050565b600080fd5b7f4e487b7100000000000000000000000000000000000000000000000000000000600052604160045260246000fd5b613e0f82613d0c565b810181811067ffffffffffffffff82111715613e2e57613e2d613dd7565b5b80604052505050565b6000613e41613acf565b9050613e4d8282613e06565b919050565b600067ffffffffffffffff821115613e6d57613e6c613dd7565b5b602082029050602081019050919050565b600080fd5b6000613e96613e9184613e52565b613e37565b90508083825260208201905060208402830185811115613eb957613eb8613e7e565b5b835b81811015613ee25780613ece8882613b62565b845260208401935050602081019050613ebb565b5050509392505050565b600082601f830112613f0157613f00613dd2565b5b8135613f11848260208601613e83565b91505092915050565b600080fd5b600067ffffffffffffffff821115613f3a57613f39613dd7565b5b613f4382613d0c565b9050602081019050919050565b82818337600083830152505050565b6000613f72613f6d84613f1f565b613e37565b905082815260208101848484011115613f8e57613f8d613f1a565b5b613f99848285613f50565b509392505050565b600082601f830112613fb657613fb5613dd2565b5b8135613fc6848260208601613f5f565b91505092915050565b600080600080600060a08688031215613feb57613fea613ad9565b5b6000613ff988828901613b2c565b955050602061400a88828901613b2c565b945050604086013567ffffffffffffffff81111561402b5761402a613ade565b5b61403788828901613eec565b935050606086013567ffffffffffffffff81111561405857614057613ade565b5b61406488828901613eec565b925050608086013567ffffffffffffffff81111561408557614084613ade565b5b61409188828901613fa1565b9150509295509295909350565b60006080820190506140b36000830187613bb7565b81810360208301526140c58186613d1d565b905081810360408301526140d98185613d1d565b90506140e86060830184613bb7565b95945050505050565b600067ffffffffffffffff82111561410c5761410b613dd7565b5b61411582613d0c565b9050602081019050919050565b6000614135614130846140f1565b613e37565b90508281526020810184848401111561415157614150613f1a565b5b61415c848285613f50565b509392505050565b600082601f83011261417957614178613dd2565b5b8135614189848260208601614122565b91505092915050565b6000806000606084860312156141ab576141aa613ad9565b5b600084013567ffffffffffffffff8111156141c9576141c8613ade565b5b6141d586828701614164565b935050602084013567ffffffffffffffff8111156141f6576141f5613ade565b5b61420286828701614164565b925050604061421386828701613b62565b9150509250925092565b600067ffffffffffffffff82111561423857614237613dd7565b5b602082029050602081019050919050565b600061425c6142578461421d565b613e37565b9050808382526020820190506020840283018581111561427f5761427e613e7e565b5b835b818110156142a857806142948882613b2c565b845260208401935050602081019050614281565b5050509392505050565b600082601f8301126142c7576142c6613dd2565b5b81356142d7848260208601614249565b91505092915050565b600080604083850312156142f7576142f6613ad9565b5b600083013567ffffffffffffffff81111561431557614314613ade565b5b614321858286016142b2565b925050602083013567ffffffffffffffff81111561434257614341613ade565b5b61434e85828601613eec565b9150509250929050565b600081519050919050565b600082825260208201905092915050565b6000819050602082019050919050565b61438d81613b41565b82525050565b600061439f8383614384565b60208301905092915050565b6000602082019050919050565b60006143c382614358565b6143cd8185614363565b93506143d883614374565b8060005b838110156144095781516143f08882614393565b97506143fb836143ab565b9250506001810190506143dc565b5085935050505092915050565b6000602082019050818103600083015261443081846143b8565b905092915050565b6000806040838503121561444f5761444e613ad9565b5b600061445d85828601613b2c565b925050602083013567ffffffffffffffff81111561447e5761447d613ade565b5b61448a85828601614164565b9150509250929050565b600067ffffffffffffffff8211156144af576144ae613dd7565b5b602082029050602081019050919050565b60006144d36144ce84614494565b613e37565b905080838252602082019050602084028301858111156144f6576144f5613e7e565b5b835b8181101561453d57803567ffffffffffffffff81111561451b5761451a613dd2565b5b8086016145288982614164565b855260208501945050506020810190506144f8565b5050509392505050565b600082601f83011261455c5761455b613dd2565b5b813561456c8482602086016144c0565b91505092915050565b60008060006060848603121561458e5761458d613ad9565b5b600061459c86828701613b62565b935050602084013567ffffffffffffffff8111156145bd576145bc613ade565b5b6145c986828701613eec565b925050604084013567ffffffffffffffff8111156145ea576145e9613ade565b5b6145f686828701614547565b9150509250925092565b60006020828403121561461657614615613ad9565b5b600082013567ffffffffffffffff81111561463457614633613ade565b5b61464084828501614164565b91505092915050565b61465281613c66565b811461465d57600080fd5b50565b60008135905061466f81614649565b92915050565b6000806040838503121561468c5761468b613ad9565b5b600061469a85828601613b2c565b92505060206146ab85828601614660565b9150509250929050565b600080604083850312156146cc576146cb613ad9565b5b60006146da85828601613b62565b92505060206146eb85828601613b62565b9150509250929050565b6000806040838503121561470c5761470b613ad9565b5b600061471a85828601613b2c565b925050602061472b85828601613b2c565b9150509250929050565b600080600080600060a0868803121561475157614750613ad9565b5b600061475f88828901613b2c565b955050602061477088828901613b2c565b945050604061478188828901613b62565b935050606061479288828901613b62565b925050608086013567ffffffffffffffff8111156147b3576147b2613ade565b5b6147bf88828901613fa1565b9150509295509295909350565b7f455243313135353a2061646472657373207a65726f206973206e6f742061207660008201527f616c6964206f776e657200000000000000000000000000000000000000000000602082015250565b6000614828602a83613cd1565b9150614833826147cc565b604082019050919050565b600060208201905081810360008301526148578161481b565b9050919050565b7f4e487b7100000000000000000000000000000000000000000000000000000000600052602260045260246000fd5b600060028204905060018216806148a557607f821691505b6020821081036148b8576148b761485e565b5b50919050565b600081905092915050565b50565b60006148d96000836148be565b91506148e4826148c9565b600082019050919050565b60006148fa826148cc565b9150819050919050565b60008190508160005260206000209050919050565b600081546149268161488d565b61493081866148be565b9450600182166000811461494b576001811461496057614993565b60ff1983168652811515820286019350614993565b61496985614904565b60005b8381101561498b5781548189015260018201915060208101905061496c565b838801955050505b50505092915050565b60006149a88284614919565b915081905092915050565b7f455243313135353a2063616c6c6572206973206e6f7420746f6b656e206f776e60008201527f6572206e6f7220617070726f7665640000000000000000000000000000000000602082015250565b6000614a0f602f83613cd1565b9150614a1a826149b3565b604082019050919050565b60006020820190508181036000830152614a3e81614a02565b9050919050565b7f43616c6c6572206973206e6f742061646d696e00000000000000000000000000600082015250565b6000614a7b601383613cd1565b9150614a8682614a45565b602082019050919050565b60006020820190508181036000830152614aaa81614a6e565b9050919050565b6000614abc82613cc6565b614ac681856148be565b9350614ad6818560208601613ce2565b80840191505092915050565b6000614aee8284614ab1565b915081905092915050565b7f55726920616c726561647920696e207573650000000000000000000000000000600082015250565b6000614b2f601283613cd1565b9150614b3a82614af9565b602082019050919050565b60006020820190508181036000830152614b5e81614b22565b9050919050565b7f4e487b7100000000000000000000000000000000000000000000000000000000600052601160045260246000fd5b6000614b9f82613b41565b9150614baa83613b41565b9250828201905080821115614bc257614bc1614b65565b5b92915050565b60006020601f8301049050919050565b600082821b905092915050565b600060088302614c157fffffffffffffffffffffffffffffffffffffffffffffffffffffffffffffffff82614bd8565b614c1f8683614bd8565b95508019841693508086168417925050509392505050565b6000819050919050565b6000614c5c614c57614c5284613b41565b614c37565b613b41565b9050919050565b6000819050919050565b614c7683614c41565b614c8a614c8282614c63565b848454614be5565b825550505050565b600090565b614c9f614c92565b614caa818484614c6d565b505050565b5b81811015614cce57614cc3600082614c97565b600181019050614cb0565b5050565b601f821115614d1357614ce481614904565b614ced84614bc8565b81016020851015614cfc578190505b614d10614d0885614bc8565b830182614caf565b50505b505050565b600082821c905092915050565b6000614d3660001984600802614d18565b1980831691505092915050565b6000614d4f8383614d25565b9150826002028217905092915050565b614d6882613cc6565b67ffffffffffffffff811115614d8157614d80613dd7565b5b614d8b825461488d565b614d96828285614cd2565b600060209050601f831160018114614dc95760008415614db7578287015190505b614dc18582614d43565b865550614e29565b601f198416614dd786614904565b60005b82811015614dff57848901518255600182019150602085019450602081019050614dda565b86831015614e1c5784890151614e18601f891682614d25565b8355505b6001600288020188555050505b505050505050565b60006040820190508181036000830152614e4b8185613d1d565b90508181036020830152614e5f8184613d1d565b90509392505050565b7f455243313135353a206163636f756e747320616e6420696473206c656e67746860008201527f206d69736d617463680000000000000000000000000000000000000000000000602082015250565b6000614ec4602983613cd1565b9150614ecf82614e68565b604082019050919050565b60006020820190508181036000830152614ef381614eb7565b9050919050565b7f4e487b7100000000000000000000000000000000000000000000000000000000600052603260045260246000fd5b6000614f3482613b41565b91507fffffffffffffffffffffffffffffffffffffffffffffffffffffffffffffffff8203614f6657614f65614b65565b5b600182019050919050565b7f416464726573732030206e6f7420616c6c6f7765640000000000000000000000600082015250565b6000614fa7601583613cd1565b9150614fb282614f71565b602082019050919050565b60006020820190508181036000830152614fd681614f9a565b9050919050565b60008154614fea8161488d565b614ff48186613cd1565b9450600182166000811461500f576001811461502557615058565b60ff198316865281151560200286019350615058565b61502e85614904565b60005b8381101561505057815481890152600182019150602081019050615031565b808801955050505b50505092915050565b6000602082019050818103600083015261507b8184614fdd565b905092915050565b7f4461746120756e6368616e676564000000000000000000000000000000000000600082015250565b60006150b9600e83613cd1565b91506150c482615083565b602082019050919050565b600060208201905081810360008301526150e8816150ac565b9050919050565b60006150fc600083613cd1565b9150615107826148c9565b600082019050919050565b6000602082019050818103600083015261512b816150ef565b9050919050565b7f416d6f756e747320616e64206e696e6a61206c656e677468206d69736d61746360008201527f6800000000000000000000000000000000000000000000000000000000000000602082015250565b600061518e602183613cd1565b915061519982615132565b604082019050919050565b600060208201905081810360008301526151bd81615181565b9050919050565b7f4e696e6a6120756e6b6e6f776e00000000000000000000000000000000000000600082015250565b60006151fa600d83613cd1565b9150615205826151c4565b602082019050919050565b60006020820190508181036000830152615229816151ed565b9050919050565b7f546f6b656e206964206e6f7420696e2075736500000000000000000000000000600082015250565b6000615266601383613cd1565b915061527182615230565b602082019050919050565b6000602082019050818103600083015261529581615259565b9050919050565b7f43616c6c6572206973206e6f742063726561746f720000000000000000000000600082015250565b60006152d2601583613cd1565b91506152dd8261529c565b602082019050919050565b60006020820190508181036000830152615301816152c5565b9050919050565b7f43726561746f72206973206e6f742072656d6f7661626c650000000000000000600082015250565b600061533e601883613cd1565b915061534982615308565b602082019050919050565b6000602082019050818103600083015261536d81615331565b9050919050565b7f455243313135353a2069647320616e6420616d6f756e7473206c656e6774682060008201527f6d69736d61746368000000000000000000000000000000000000000000000000602082015250565b60006153d0602883613cd1565b91506153db82615374565b604082019050919050565b600060208201905081810360008301526153ff816153c3565b9050919050565b7f455243313135353a207472616e7366657220746f20746865207a65726f20616460008201527f6472657373000000000000000000000000000000000000000000000000000000602082015250565b6000615462602583613cd1565b915061546d82615406565b604082019050919050565b6000602082019050818103600083015261549181615455565b9050919050565b7f455243313135353a20696e73756666696369656e742062616c616e636520666f60008201527f72207472616e7366657200000000000000000000000000000000000000000000602082015250565b60006154f4602a83613cd1565b91506154ff82615498565b604082019050919050565b60006020820190508181036000830152615523816154e7565b9050919050565b6000604082019050818103600083015261554481856143b8565b9050818103602083015261555881846143b8565b90509392505050565b6000608082019050818103600083015261557b8187613d1d565b905061558a6020830186613bb7565b818103604083015261559c8185613d1d565b90506155ab6060830184613bb7565b95945050505050565b7f455243313135353a206d696e7420746f20746865207a65726f2061646472657360008201527f7300000000000000000000000000000000000000000000000000000000000000602082015250565b6000615610602183613cd1565b915061561b826155b4565b604082019050919050565b6000602082019050818103600083015261563f81615603565b9050919050565b600060408201905061565b6000830185613bb7565b6156686020830184613bb7565b9392505050565b600061567a82613b41565b915061568583613b41565b925082820390508181111561569d5761569c614b65565b5b92915050565b7f4e487b7100000000000000000000000000000000000000000000000000000000600052603160045260246000fd5b600060408201905081810360008301526156ec8185613d1d565b90506156fb6020830184613bb7565b9392505050565b7f455243313135353a2073657474696e6720617070726f76616c2073746174757360008201527f20666f722073656c660000000000000000000000000000000000000000000000602082015250565b600061575e602983613cd1565b915061576982615702565b604082019050919050565b6000602082019050818103600083015261578d81615751565b9050919050565b600060608201905081810360008301526157ae8186613d1d565b90506157bd6020830185613c9c565b81810360408301526157cf8184613d1d565b9050949350505050565b600081519050919050565b600082825260208201905092915050565b6000615800826157d9565b61580a81856157e4565b935061581a818560208601613ce2565b61582381613d0c565b840191505092915050565b600060a0820190506158436000830188613c9c565b6158506020830187613c9c565b818103604083015261586281866143b8565b9050818103606083015261587681856143b8565b9050818103608083015261588a81846157f5565b90509695505050505050565b6000815190506158a581613c0d565b92915050565b6000602082840312156158c1576158c0613ad9565b5b60006158cf84828501615896565b91505092915050565b60008160e01c9050919050565b600060033d11156159045760046000803e6159016000516158d8565b90505b90565b600060443d1061599457615919613acf565b60043d036004823e80513d602482011167ffffffffffffffff82111715615941575050615994565b808201805167ffffffffffffffff81111561595f5750505050615994565b80602083010160043d03850181111561597c575050505050615994565b61598b82602001850186613e06565b82955050505050505b90565b7f455243313135353a207472616e7366657220746f206e6f6e204552433131353560008201527f526563656976657220696d706c656d656e746572000000000000000000000000602082015250565b60006159f3603483613cd1565b91506159fe82615997565b604082019050919050565b60006020820190508181036000830152615a22816159e6565b9050919050565b7f455243313135353a204552433131353552656365697665722072656a6563746560008201527f6420746f6b656e73000000000000000000000000000000000000000000000000602082015250565b6000615a85602883613cd1565b9150615a9082615a29565b604082019050919050565b60006020820190508181036000830152615ab481615a78565b9050919050565b600060a082019050615ad06000830188613c9c565b615add6020830187613c9c565b615aea6040830186613bb7565b615af76060830185613bb7565b8181036080830152615b0981846157f5565b9050969550505050505056fe4d696e74696e67204e465420257320776974682055726920257320666f7220257320746f6b656e4368616e67652041646d696e2066756e6374696f6e20666f72206164647265737320257320616e64206e616d652025734372656174696e6720616e64206d696e74696e67204e465420257320776974682055726920257320666f7220257320746f6b656ea2646970667358221220eaf7085e3eec6e4e7cc7d6bc7ce4ca55c50db3d2d6e20c301f8da72dd8d3fb0064736f6c6343000811003368747470733a2f2f676174657761792e70696e6174612e636c6f75642f697066732f",
  "linkReferences": {},
  "deployedLinkReferences": {}
}